{
  "abi": [
    {
      "type": "constructor",
      "inputs": [
        {
          "name": "_tokenAddress",
          "type": "address",
          "internalType": "address"
        },
        {
          "name": "_walletContract",
          "type": "address",
          "internalType": "address"
        }
      ],
      "stateMutability": "nonpayable"
    },
    {
      "type": "function",
      "name": "ADMIN_ROLE",
      "inputs": [],
      "outputs": [
        {
          "name": "",
          "type": "bytes32",
          "internalType": "bytes32"
        }
      ],
      "stateMutability": "view"
    },
    {
      "type": "function",
      "name": "DEFAULT_ADMIN_ROLE",
      "inputs": [],
      "outputs": [
        {
          "name": "",
          "type": "bytes32",
          "internalType": "bytes32"
        }
      ],
      "stateMutability": "view"
    },
    {
      "type": "function",
      "name": "GOLD_THRESHOLD",
      "inputs": [],
      "outputs": [
        {
          "name": "",
          "type": "uint256",
          "internalType": "uint256"
        }
      ],
      "stateMutability": "view"
    },
    {
      "type": "function",
      "name": "SILVER_THRESHOLD",
      "inputs": [],
      "outputs": [
        {
          "name": "",
          "type": "uint256",
          "internalType": "uint256"
        }
      ],
      "stateMutability": "view"
    },
    {
      "type": "function",
      "name": "VERIFIER_ROLE",
      "inputs": [],
      "outputs": [
        {
          "name": "",
          "type": "bytes32",
          "internalType": "bytes32"
        }
      ],
      "stateMutability": "view"
    },
    {
      "type": "function",
      "name": "awardCredits",
      "inputs": [
        {
          "name": "student",
          "type": "address",
          "internalType": "address"
        },
        {
          "name": "quizId",
          "type": "uint256",
          "internalType": "uint256"
        },
        {
          "name": "points",
          "type": "uint256",
          "internalType": "uint256"
        }
      ],
      "outputs": [],
      "stateMutability": "nonpayable"
    },
    {
      "type": "function",
      "name": "batchAwardCredits",
      "inputs": [
        {
          "name": "students",
          "type": "address[]",
          "internalType": "address[]"
        },
        {
          "name": "quizIds",
          "type": "uint256[]",
          "internalType": "uint256[]"
        },
        {
          "name": "pointsArray",
          "type": "uint256[]",
          "internalType": "uint256[]"
        }
      ],
      "outputs": [],
      "stateMutability": "nonpayable"
    },
    {
      "type": "function",
      "name": "emergencyTokenWithdraw",
      "inputs": [
        {
          "name": "token",
          "type": "address",
          "internalType": "address"
        },
        {
          "name": "amount",
          "type": "uint256",
          "internalType": "uint256"
        }
      ],
      "outputs": [],
      "stateMutability": "nonpayable"
    },
    {
      "type": "function",
      "name": "getQuizzesCompleted",
      "inputs": [
        {
          "name": "student",
          "type": "address",
          "internalType": "address"
        }
      ],
      "outputs": [
        {
          "name": "",
          "type": "uint256",
          "internalType": "uint256"
        }
      ],
      "stateMutability": "view"
    },
    {
      "type": "function",
      "name": "getRoleAdmin",
      "inputs": [
        {
          "name": "role",
          "type": "bytes32",
          "internalType": "bytes32"
        }
      ],
      "outputs": [
        {
          "name": "",
          "type": "bytes32",
          "internalType": "bytes32"
        }
      ],
      "stateMutability": "view"
    },
    {
      "type": "function",
      "name": "getStudentRewards",
      "inputs": [
        {
          "name": "student",
          "type": "address",
          "internalType": "address"
        }
      ],
      "outputs": [
        {
          "name": "",
          "type": "uint256",
          "internalType": "uint256"
        }
      ],
      "stateMutability": "view"
    },
    {
      "type": "function",
      "name": "getStudentStats",
      "inputs": [
        {
          "name": "student",
          "type": "address",
          "internalType": "address"
        }
      ],
      "outputs": [
        {
          "name": "totalRewards",
          "type": "uint256",
          "internalType": "uint256"
        },
        {
          "name": "totalQuizzes",
          "type": "uint256",
          "internalType": "uint256"
        },
        {
          "name": "tier",
          "type": "string",
          "internalType": "string"
        },
        {
          "name": "silverClaimed",
          "type": "bool",
          "internalType": "bool"
        },
        {
          "name": "goldClaimed",
          "type": "bool",
          "internalType": "bool"
        }
      ],
      "stateMutability": "view"
    },
    {
      "type": "function",
      "name": "getStudentTier",
      "inputs": [
        {
          "name": "student",
          "type": "address",
          "internalType": "address"
        }
      ],
      "outputs": [
        {
          "name": "",
          "type": "string",
          "internalType": "string"
        }
      ],
      "stateMutability": "view"
    },
    {
      "type": "function",
      "name": "goldBonusClaimed",
      "inputs": [
        {
          "name": "",
          "type": "address",
          "internalType": "address"
        }
      ],
      "outputs": [
        {
          "name": "",
          "type": "bool",
          "internalType": "bool"
        }
      ],
      "stateMutability": "view"
    },
    {
      "type": "function",
      "name": "grantRole",
      "inputs": [
        {
          "name": "role",
          "type": "bytes32",
          "internalType": "bytes32"
        },
        {
          "name": "account",
          "type": "address",
          "internalType": "address"
        }
      ],
      "outputs": [],
      "stateMutability": "nonpayable"
    },
    {
      "type": "function",
      "name": "hasRole",
      "inputs": [
        {
          "name": "role",
          "type": "bytes32",
          "internalType": "bytes32"
        },
        {
          "name": "account",
          "type": "address",
          "internalType": "address"
        }
      ],
      "outputs": [
        {
          "name": "",
          "type": "bool",
          "internalType": "bool"
        }
      ],
      "stateMutability": "view"
    },
    {
      "type": "function",
      "name": "isQuizCompleted",
      "inputs": [
        {
          "name": "student",
          "type": "address",
          "internalType": "address"
        },
        {
          "name": "quizId",
          "type": "uint256",
          "internalType": "uint256"
        }
      ],
      "outputs": [
        {
          "name": "",
          "type": "bool",
          "internalType": "bool"
        }
      ],
      "stateMutability": "view"
    },
    {
      "type": "function",
      "name": "learnCreditToken",
      "inputs": [],
      "outputs": [
        {
          "name": "",
          "type": "address",
          "internalType": "address"
        }
      ],
      "stateMutability": "view"
    },
    {
      "type": "function",
      "name": "manualAwardTierBonus",
      "inputs": [
        {
          "name": "student",
          "type": "address",
          "internalType": "address"
        },
        {
          "name": "tier",
          "type": "string",
          "internalType": "string"
        }
      ],
      "outputs": [],
      "stateMutability": "nonpayable"
    },
    {
      "type": "function",
      "name": "pause",
      "inputs": [],
      "outputs": [],
      "stateMutability": "nonpayable"
    },
    {
      "type": "function",
      "name": "paused",
      "inputs": [],
      "outputs": [
        {
          "name": "",
          "type": "bool",
          "internalType": "bool"
        }
      ],
      "stateMutability": "view"
    },
    {
      "type": "function",
      "name": "quizCompletionStatus",
      "inputs": [
        {
          "name": "",
          "type": "address",
          "internalType": "address"
        },
        {
          "name": "",
          "type": "uint256",
          "internalType": "uint256"
        }
      ],
      "outputs": [
        {
          "name": "",
          "type": "bool",
          "internalType": "bool"
        }
      ],
      "stateMutability": "view"
    },
    {
      "type": "function",
      "name": "quizzesCompleted",
      "inputs": [
        {
          "name": "",
          "type": "address",
          "internalType": "address"
        }
      ],
      "outputs": [
        {
          "name": "",
          "type": "uint256",
          "internalType": "uint256"
        }
      ],
      "stateMutability": "view"
    },
    {
      "type": "function",
      "name": "renounceRole",
      "inputs": [
        {
          "name": "role",
          "type": "bytes32",
          "internalType": "bytes32"
        },
        {
          "name": "callerConfirmation",
          "type": "address",
          "internalType": "address"
        }
      ],
      "outputs": [],
      "stateMutability": "nonpayable"
    },
    {
      "type": "function",
      "name": "revokeRole",
      "inputs": [
        {
          "name": "role",
          "type": "bytes32",
          "internalType": "bytes32"
        },
        {
          "name": "account",
          "type": "address",
          "internalType": "address"
        }
      ],
      "outputs": [],
      "stateMutability": "nonpayable"
    },
    {
      "type": "function",
      "name": "silverBonusClaimed",
      "inputs": [
        {
          "name": "",
          "type": "address",
          "internalType": "address"
        }
      ],
      "outputs": [
        {
          "name": "",
          "type": "bool",
          "internalType": "bool"
        }
      ],
      "stateMutability": "view"
    },
    {
      "type": "function",
      "name": "studentRewards",
      "inputs": [
        {
          "name": "",
          "type": "address",
          "internalType": "address"
        }
      ],
      "outputs": [
        {
          "name": "",
          "type": "uint256",
          "internalType": "uint256"
        }
      ],
      "stateMutability": "view"
    },
    {
      "type": "function",
      "name": "supportsInterface",
      "inputs": [
        {
          "name": "interfaceId",
          "type": "bytes4",
          "internalType": "bytes4"
        }
      ],
      "outputs": [
        {
          "name": "",
          "type": "bool",
          "internalType": "bool"
        }
      ],
      "stateMutability": "view"
    },
    {
      "type": "function",
      "name": "unpause",
      "inputs": [],
      "outputs": [],
      "stateMutability": "nonpayable"
    },
    {
      "type": "function",
      "name": "updateTokenAddress",
      "inputs": [
        {
          "name": "newToken",
          "type": "address",
          "internalType": "address"
        }
      ],
      "outputs": [],
      "stateMutability": "nonpayable"
    },
    {
      "type": "function",
      "name": "updateWalletContract",
      "inputs": [
        {
          "name": "newWallet",
          "type": "address",
          "internalType": "address"
        }
      ],
      "outputs": [],
      "stateMutability": "nonpayable"
    },
    {
      "type": "function",
      "name": "walletContract",
      "inputs": [],
      "outputs": [
        {
          "name": "",
          "type": "address",
          "internalType": "address"
        }
      ],
      "stateMutability": "view"
    },
    {
      "type": "event",
      "name": "Paused",
      "inputs": [
        {
          "name": "account",
          "type": "address",
          "indexed": false,
          "internalType": "address"
        }
      ],
      "anonymous": false
    },
    {
      "type": "event",
      "name": "QuizCompleted",
      "inputs": [
        {
          "name": "student",
          "type": "address",
          "indexed": true,
          "internalType": "address"
        },
        {
          "name": "quizId",
          "type": "uint256",
          "indexed": true,
          "internalType": "uint256"
        },
        {
          "name": "points",
          "type": "uint256",
          "indexed": false,
          "internalType": "uint256"
        }
      ],
      "anonymous": false
    },
    {
      "type": "event",
      "name": "RewardIssued",
      "inputs": [
        {
          "name": "student",
          "type": "address",
          "indexed": true,
          "internalType": "address"
        },
        {
          "name": "amount",
          "type": "uint256",
          "indexed": false,
          "internalType": "uint256"
        },
        {
          "name": "reason",
          "type": "string",
          "indexed": false,
          "internalType": "string"
        }
      ],
      "anonymous": false
    },
    {
      "type": "event",
      "name": "RoleAdminChanged",
      "inputs": [
        {
          "name": "role",
          "type": "bytes32",
          "indexed": true,
          "internalType": "bytes32"
        },
        {
          "name": "previousAdminRole",
          "type": "bytes32",
          "indexed": true,
          "internalType": "bytes32"
        },
        {
          "name": "newAdminRole",
          "type": "bytes32",
          "indexed": true,
          "internalType": "bytes32"
        }
      ],
      "anonymous": false
    },
    {
      "type": "event",
      "name": "RoleGranted",
      "inputs": [
        {
          "name": "role",
          "type": "bytes32",
          "indexed": true,
          "internalType": "bytes32"
        },
        {
          "name": "account",
          "type": "address",
          "indexed": true,
          "internalType": "address"
        },
        {
          "name": "sender",
          "type": "address",
          "indexed": true,
          "internalType": "address"
        }
      ],
      "anonymous": false
    },
    {
      "type": "event",
      "name": "RoleRevoked",
      "inputs": [
        {
          "name": "role",
          "type": "bytes32",
          "indexed": true,
          "internalType": "bytes32"
        },
        {
          "name": "account",
          "type": "address",
          "indexed": true,
          "internalType": "address"
        },
        {
          "name": "sender",
          "type": "address",
          "indexed": true,
          "internalType": "address"
        }
      ],
      "anonymous": false
    },
    {
      "type": "event",
      "name": "TierBonusAwarded",
      "inputs": [
        {
          "name": "student",
          "type": "address",
          "indexed": true,
          "internalType": "address"
        },
        {
          "name": "tier",
          "type": "string",
          "indexed": false,
          "internalType": "string"
        },
        {
          "name": "amount",
          "type": "uint256",
          "indexed": false,
          "internalType": "uint256"
        }
      ],
      "anonymous": false
    },
    {
      "type": "event",
      "name": "TokenAddressUpdated",
      "inputs": [
        {
          "name": "oldToken",
          "type": "address",
          "indexed": true,
          "internalType": "address"
        },
        {
          "name": "newToken",
          "type": "address",
          "indexed": true,
          "internalType": "address"
        }
      ],
      "anonymous": false
    },
    {
      "type": "event",
      "name": "Unpaused",
      "inputs": [
        {
          "name": "account",
          "type": "address",
          "indexed": false,
          "internalType": "address"
        }
      ],
      "anonymous": false
    },
    {
      "type": "event",
      "name": "WalletContractUpdated",
      "inputs": [
        {
          "name": "oldWallet",
          "type": "address",
          "indexed": true,
          "internalType": "address"
        },
        {
          "name": "newWallet",
          "type": "address",
          "indexed": true,
          "internalType": "address"
        }
      ],
      "anonymous": false
    },
    {
      "type": "error",
      "name": "AccessControlBadConfirmation",
      "inputs": []
    },
    {
      "type": "error",
      "name": "AccessControlUnauthorizedAccount",
      "inputs": [
        {
          "name": "account",
          "type": "address",
          "internalType": "address"
        },
        {
          "name": "neededRole",
          "type": "bytes32",
          "internalType": "bytes32"
        }
      ]
    },
    {
      "type": "error",
      "name": "EnforcedPause",
      "inputs": []
    },
    {
      "type": "error",
      "name": "ExpectedPause",
      "inputs": []
    },
    {
      "type": "error",
      "name": "ReentrancyGuardReentrantCall",
      "inputs": []
    }
  ],
  "bytecode": {
    "object": "0x608060405234801561000f575f5ffd5b506040516145bc3803806145bc833981810160405281019061003191906103af565b600161004f6100446101bf60201b60201c565b6101e860201b60201c565b5f01819055505f73ffffffffffffffffffffffffffffffffffffffff168173ffffffffffffffffffffffffffffffffffffffff16036100c3576040517f08c379a00000000000000000000000000000000000000000000000000000000081526004016100ba90610447565b60405180910390fd5b8160025f6101000a81548173ffffffffffffffffffffffffffffffffffffffff021916908373ffffffffffffffffffffffffffffffffffffffff1602179055508060035f6101000a81548173ffffffffffffffffffffffffffffffffffffffff021916908373ffffffffffffffffffffffffffffffffffffffff1602179055506101555f5f1b336101f160201b60201c565b506101867fa49807205ce4d355092ef5a8a18f56e8913cf4a201fbe287825b095693c21775336101f160201b60201c565b506101b77f0ce23c3e399818cfee81a7ab0880f714e53d7672b08df0fa62f2843416e1ea09336101f160201b60201c565b505050610465565b5f7f9b779b17422d0df92223018b32b4d1fa46e071723d6817e2486d003becc55f005f1b905090565b5f819050919050565b5f61020283836102e660201b60201c565b6102dc576001805f8581526020019081526020015f205f015f8473ffffffffffffffffffffffffffffffffffffffff1673ffffffffffffffffffffffffffffffffffffffff1681526020019081526020015f205f6101000a81548160ff02191690831515021790555061027961034a60201b60201c565b73ffffffffffffffffffffffffffffffffffffffff168273ffffffffffffffffffffffffffffffffffffffff16847f2f8788117e7eff1d82e926ec794901d17c78024a50270940304540a733656f0d60405160405180910390a4600190506102e0565b5f90505b92915050565b5f60015f8481526020019081526020015f205f015f8373ffffffffffffffffffffffffffffffffffffffff1673ffffffffffffffffffffffffffffffffffffffff1681526020019081526020015f205f9054906101000a900460ff16905092915050565b5f33905090565b5f5ffd5b5f73ffffffffffffffffffffffffffffffffffffffff82169050919050565b5f61037e82610355565b9050919050565b61038e81610374565b8114610398575f5ffd5b50565b5f815190506103a981610385565b92915050565b5f5f604083850312156103c5576103c4610351565b5b5f6103d28582860161039b565b92505060206103e38582860161039b565b9150509250929050565b5f82825260208201905092915050565b7f496e76616c69642077616c6c65742061646472657373000000000000000000005f82015250565b5f6104316016836103ed565b915061043c826103fd565b602082019050919050565b5f6020820190508181035f83015261045e81610425565b9050919050565b61414a806104725f395ff3fe608060405234801561000f575f5ffd5b50600436106101ee575f3560e01c80638456cb591161010d578063c1a0db30116100a0578063e6aa6ad31161006f578063e6aa6ad3146105e0578063e7705db6146105fc578063e7dda12c1461061a578063fe032ee014610636576101ee565b8063c1a0db3014610558578063d0ed5c2f14610576578063d547741f14610594578063dfa13ff0146105b0576101ee565b80639b6a84a7116100dc5780639b6a84a7146104cc578063a217fddf14610500578063b1a141b71461051e578063b89e8a151461053a576101ee565b80638456cb59146104465780638aee0eb0146104505780639175b9e31461046c57806391d148541461049c576101ee565b80635697397411610185578063691543101161015457806369154310146103985780636bd8cac3146103c85780636dd9afa4146103f857806375b238fc14610428576101ee565b806356973974146103105780635c975abb1461032e5780636691461a1461034c57806366f2437e14610368576101ee565b8063317cb151116101c1578063317cb1511461029e57806336568abe146102ba5780633f4ba83a146102d6578063511c5948146102e0576101ee565b806301ffc9a7146101f257806323428cb914610222578063248a9ca3146102525780632f2ff15d14610282575b5f5ffd5b61020c60048036038101906102079190612f93565b610666565b6040516102199190612fd8565b60405180910390f35b61023c6004803603810190610237919061307e565b6106df565b6040516102499190612fd8565b60405180910390f35b61026c600480360381019061026791906130ef565b610709565b6040516102799190613129565b60405180910390f35b61029c60048036038101906102979190613142565b610726565b005b6102b860048036038101906102b3919061307e565b610748565b005b6102d460048036038101906102cf9190613142565b61086f565b005b6102de6108ea565b005b6102fa60048036038101906102f59190613180565b61095d565b6040516103079190612fd8565b60405180910390f35b61031861097a565b60405161032591906131ba565b60405180910390f35b610336610988565b6040516103439190612fd8565b60405180910390f35b61036660048036038101906103619190613180565b61099c565b005b610382600480360381019061037d9190613180565b610b36565b60405161038f91906131ba565b60405180910390f35b6103b260048036038101906103ad9190613180565b610b7c565b6040516103bf91906131ba565b60405180910390f35b6103e260048036038101906103dd9190613180565b610b91565b6040516103ef91906131ba565b60405180910390f35b610412600480360381019061040d9190613180565b610ba6565b60405161041f91906131ba565b60405180910390f35b610430610bec565b60405161043d9190613129565b60405180910390f35b61044e610c10565b005b61046a6004803603810190610465919061330f565b610c83565b005b61048660048036038101906104819190613180565b611237565b60405161049391906133c9565b60405180910390f35b6104b660048036038101906104b19190613142565b611357565b6040516104c39190612fd8565b60405180910390f35b6104e660048036038101906104e19190613180565b6113bb565b6040516104f79594939291906133e9565b60405180910390f35b6105086115b8565b6040516105159190613129565b60405180910390f35b61053860048036038101906105339190613441565b6115be565b005b610542611b67565b60405161054f91906134a0565b60405180910390f35b610560611b8c565b60405161056d91906131ba565b60405180910390f35b61057e611b9a565b60405161058b91906134a0565b60405180910390f35b6105ae60048036038101906105a99190613142565b611bbf565b005b6105ca60048036038101906105c59190613180565b611be1565b6040516105d79190612fd8565b60405180910390f35b6105fa60048036038101906105f59190613180565b611bfe565b005b610604611d98565b6040516106119190613129565b60405180910390f35b610634600480360381019061062f919061356b565b611dbc565b005b610650600480360381019061064b919061307e565b61202b565b60405161065d9190612fd8565b60405180910390f35b5f7f7965db0b000000000000000000000000000000000000000000000000000000007bffffffffffffffffffffffffffffffffffffffffffffffffffffffff1916827bffffffffffffffffffffffffffffffffffffffffffffffffffffffff191614806106d857506106d78261208d565b5b9050919050565b6006602052815f5260405f20602052805f5260405f205f915091509054906101000a900460ff1681565b5f60015f8381526020019081526020015f20600101549050919050565b61072f82610709565b610738816120f6565b610742838361210a565b50505050565b6107727fa49807205ce4d355092ef5a8a18f56e8913cf4a201fbe287825b095693c2177533611357565b6107b1576040517f08c379a00000000000000000000000000000000000000000000000000000000081526004016107a890613665565b60405180910390fd5b8173ffffffffffffffffffffffffffffffffffffffff1663a9059cbb33836040518363ffffffff1660e01b81526004016107ec929190613683565b6020604051808303815f875af1158015610808573d5f5f3e3d5ffd5b505050506040513d601f19601f8201168201806040525081019061082c91906136d4565b61086b576040517f08c379a000000000000000000000000000000000000000000000000000000000815260040161086290613749565b60405180910390fd5b5050565b6108776121f3565b73ffffffffffffffffffffffffffffffffffffffff168173ffffffffffffffffffffffffffffffffffffffff16146108db576040517f6697b23200000000000000000000000000000000000000000000000000000000815260040160405180910390fd5b6108e582826121fa565b505050565b6109147fa49807205ce4d355092ef5a8a18f56e8913cf4a201fbe287825b095693c2177533611357565b610953576040517f08c379a000000000000000000000000000000000000000000000000000000000815260040161094a90613665565b60405180910390fd5b61095b6122e4565b565b6007602052805f5260405f205f915054906101000a900460ff1681565b69032d26d12e980b60000081565b5f5f5f9054906101000a900460ff16905090565b6109c67fa49807205ce4d355092ef5a8a18f56e8913cf4a201fbe287825b095693c2177533611357565b610a05576040517f08c379a00000000000000000000000000000000000000000000000000000000081526004016109fc90613665565b60405180910390fd5b5f73ffffffffffffffffffffffffffffffffffffffff168173ffffffffffffffffffffffffffffffffffffffff1603610a73576040517f08c379a0000000000000000000000000000000000000000000000000000000008152600401610a6a906137b1565b60405180910390fd5b5f60025f9054906101000a900473ffffffffffffffffffffffffffffffffffffffff1690508160025f6101000a81548173ffffffffffffffffffffffffffffffffffffffff021916908373ffffffffffffffffffffffffffffffffffffffff1602179055508173ffffffffffffffffffffffffffffffffffffffff168173ffffffffffffffffffffffffffffffffffffffff167ffb9b24f1fe56bb402b23b11b0b134a4a23f2eaa65b67c417ece943919398136a60405160405180910390a35050565b5f60055f8373ffffffffffffffffffffffffffffffffffffffff1673ffffffffffffffffffffffffffffffffffffffff1681526020019081526020015f20549050919050565b6004602052805f5260405f205f915090505481565b6005602052805f5260405f205f915090505481565b5f60045f8373ffffffffffffffffffffffffffffffffffffffff1673ffffffffffffffffffffffffffffffffffffffff1681526020019081526020015f20549050919050565b7fa49807205ce4d355092ef5a8a18f56e8913cf4a201fbe287825b095693c2177581565b610c3a7fa49807205ce4d355092ef5a8a18f56e8913cf4a201fbe287825b095693c2177533611357565b610c79576040517f08c379a0000000000000000000000000000000000000000000000000000000008152600401610c7090613665565b60405180910390fd5b610c81612344565b565b610cad7fa49807205ce4d355092ef5a8a18f56e8913cf4a201fbe287825b095693c2177533611357565b610cec576040517f08c379a0000000000000000000000000000000000000000000000000000000008152600401610ce390613665565b60405180910390fd5b5f73ffffffffffffffffffffffffffffffffffffffff168273ffffffffffffffffffffffffffffffffffffffff1603610d5a576040517f08c379a0000000000000000000000000000000000000000000000000000000008152600401610d5190613819565b60405180910390fd5b5f604051602001610d6a9061388b565b6040516020818303038152906040528051906020012082604051602001610d9191906138cf565b6040516020818303038152906040528051906020012003610e9c5760075f8473ffffffffffffffffffffffffffffffffffffffff1673ffffffffffffffffffffffffffffffffffffffff1681526020019081526020015f205f9054906101000a900460ff1615610e36576040517f08c379a0000000000000000000000000000000000000000000000000000000008152600401610e2d9061392f565b60405180910390fd5b600160075f8573ffffffffffffffffffffffffffffffffffffffff1673ffffffffffffffffffffffffffffffffffffffff1681526020019081526020015f205f6101000a81548160ff021916908315150217905550683635c9adc5dea000009050611019565b604051602001610eab90613997565b6040516020818303038152906040528051906020012082604051602001610ed291906138cf565b6040516020818303038152906040528051906020012003610fdd5760085f8473ffffffffffffffffffffffffffffffffffffffff1673ffffffffffffffffffffffffffffffffffffffff1681526020019081526020015f205f9054906101000a900460ff1615610f77576040517f08c379a0000000000000000000000000000000000000000000000000000000008152600401610f6e906139f5565b60405180910390fd5b600160085f8573ffffffffffffffffffffffffffffffffffffffff1673ffffffffffffffffffffffffffffffffffffffff1681526020019081526020015f205f6101000a81548160ff021916908315150217905550686c6b935b8bbd4000009050611018565b6040517f08c379a000000000000000000000000000000000000000000000000000000000815260040161100f90613a5d565b60405180910390fd5b5b8060045f8573ffffffffffffffffffffffffffffffffffffffff1673ffffffffffffffffffffffffffffffffffffffff1681526020019081526020015f205f8282546110659190613aa8565b9250508190555060035f9054906101000a900473ffffffffffffffffffffffffffffffffffffffff1673ffffffffffffffffffffffffffffffffffffffff166380dc8b06846040518263ffffffff1660e01b81526004016110c691906134a0565b602060405180830381865afa1580156110e1573d5f5f3e3d5ffd5b505050506040513d601f19601f8201168201806040525081019061110591906136d4565b156111945760035f9054906101000a900473ffffffffffffffffffffffffffffffffffffffff1673ffffffffffffffffffffffffffffffffffffffff1663871ff40584836040518363ffffffff1660e01b8152600401611166929190613683565b5f604051808303815f87803b15801561117d575f5ffd5b505af115801561118f573d5f5f3e3d5ffd5b505050505b8273ffffffffffffffffffffffffffffffffffffffff167fc7e43f7cf2e59223003b33abd1894f6508da83bef374708c01e19d4a65d4d62b83836040516111dc929190613adb565b60405180910390a28273ffffffffffffffffffffffffffffffffffffffff167fac5e3ed0ccb5aba6bb73488fb597b4196fd1afe9c893ddeaad25dd71b31ed53c8260405161122a9190613b53565b60405180910390a2505050565b60605f60045f8473ffffffffffffffffffffffffffffffffffffffff1673ffffffffffffffffffffffffffffffffffffffff1681526020019081526020015f2054905069032d26d12e980b60000081106112c9576040518060400160405280600481526020017f476f6c6400000000000000000000000000000000000000000000000000000000815250915050611352565b69010f0cf064dd592000008110611318576040518060400160405280600681526020017f53696c7665720000000000000000000000000000000000000000000000000000815250915050611352565b6040518060400160405280600681526020017f42726f6e7a6500000000000000000000000000000000000000000000000000008152509150505b919050565b5f60015f8481526020019081526020015f205f015f8373ffffffffffffffffffffffffffffffffffffffff1673ffffffffffffffffffffffffffffffffffffffff1681526020019081526020015f205f9054906101000a900460ff16905092915050565b5f5f60605f5f60045f8773ffffffffffffffffffffffffffffffffffffffff1673ffffffffffffffffffffffffffffffffffffffff1681526020019081526020015f2054945060055f8773ffffffffffffffffffffffffffffffffffffffff1673ffffffffffffffffffffffffffffffffffffffff1681526020019081526020015f2054935069032d26d12e980b600000851061148f576040518060400160405280600481526020017f476f6c64000000000000000000000000000000000000000000000000000000008152509250611517565b69010f0cf064dd5920000085106114dd576040518060400160405280600681526020017f53696c76657200000000000000000000000000000000000000000000000000008152509250611516565b6040518060400160405280600681526020017f42726f6e7a65000000000000000000000000000000000000000000000000000081525092505b5b60075f8773ffffffffffffffffffffffffffffffffffffffff1673ffffffffffffffffffffffffffffffffffffffff1681526020019081526020015f205f9054906101000a900460ff16915060085f8773ffffffffffffffffffffffffffffffffffffffff1673ffffffffffffffffffffffffffffffffffffffff1681526020019081526020015f205f9054906101000a900460ff16905091939590929450565b5f5f1b81565b6115e87f0ce23c3e399818cfee81a7ab0880f714e53d7672b08df0fa62f2843416e1ea0933611357565b611627576040517f08c379a000000000000000000000000000000000000000000000000000000000815260040161161e90613bc9565b60405180910390fd5b61162f6123a5565b6116376123e6565b5f73ffffffffffffffffffffffffffffffffffffffff168373ffffffffffffffffffffffffffffffffffffffff16036116a5576040517f08c379a000000000000000000000000000000000000000000000000000000000815260040161169c90613819565b60405180910390fd5b5f81116116e7576040517f08c379a00000000000000000000000000000000000000000000000000000000081526004016116de90613c31565b60405180910390fd5b60065f8473ffffffffffffffffffffffffffffffffffffffff1673ffffffffffffffffffffffffffffffffffffffff1681526020019081526020015f205f8381526020019081526020015f205f9054906101000a900460ff1615611780576040517f08c379a000000000000000000000000000000000000000000000000000000000815260040161177790613c99565b60405180910390fd5b600160065f8573ffffffffffffffffffffffffffffffffffffffff1673ffffffffffffffffffffffffffffffffffffffff1681526020019081526020015f205f8481526020019081526020015f205f6101000a81548160ff0219169083151502179055505f600a670de0b6b3a7640000836117fb9190613cb7565b6118059190613d25565b90508060045f8673ffffffffffffffffffffffffffffffffffffffff1673ffffffffffffffffffffffffffffffffffffffff1681526020019081526020015f205f8282546118539190613aa8565b92505081905550600160055f8673ffffffffffffffffffffffffffffffffffffffff1673ffffffffffffffffffffffffffffffffffffffff1681526020019081526020015f205f8282546118a79190613aa8565b9250508190555060025f9054906101000a900473ffffffffffffffffffffffffffffffffffffffff1673ffffffffffffffffffffffffffffffffffffffff166323b872dd3330846040518463ffffffff1660e01b815260040161190c93929190613d55565b6020604051808303815f875af1158015611928573d5f5f3e3d5ffd5b505050506040513d601f19601f8201168201806040525081019061194c91906136d4565b61198b576040517f08c379a000000000000000000000000000000000000000000000000000000000815260040161198290613dd4565b60405180910390fd5b60035f9054906101000a900473ffffffffffffffffffffffffffffffffffffffff1673ffffffffffffffffffffffffffffffffffffffff166380dc8b06856040518263ffffffff1660e01b81526004016119e591906134a0565b602060405180830381865afa158015611a00573d5f5f3e3d5ffd5b505050506040513d601f19601f82011682018060405250810190611a2491906136d4565b15611ab35760035f9054906101000a900473ffffffffffffffffffffffffffffffffffffffff1673ffffffffffffffffffffffffffffffffffffffff1663871ff40585836040518363ffffffff1660e01b8152600401611a85929190613683565b5f604051808303815f87803b158015611a9c575f5ffd5b505af1158015611aae573d5f5f3e3d5ffd5b505050505b828473ffffffffffffffffffffffffffffffffffffffff167fb19db0da2fcbedc9057d111843a97780e1d3334a38f64062e8f5f5871544379f84604051611afa91906131ba565b60405180910390a38373ffffffffffffffffffffffffffffffffffffffff167fac5e3ed0ccb5aba6bb73488fb597b4196fd1afe9c893ddeaad25dd71b31ed53c82604051611b489190613e3c565b60405180910390a2611b5984612408565b50611b62612a14565b505050565b60025f9054906101000a900473ffffffffffffffffffffffffffffffffffffffff1681565b69010f0cf064dd5920000081565b60035f9054906101000a900473ffffffffffffffffffffffffffffffffffffffff1681565b611bc882610709565b611bd1816120f6565b611bdb83836121fa565b50505050565b6008602052805f5260405f205f915054906101000a900460ff1681565b611c287fa49807205ce4d355092ef5a8a18f56e8913cf4a201fbe287825b095693c2177533611357565b611c67576040517f08c379a0000000000000000000000000000000000000000000000000000000008152600401611c5e90613665565b60405180910390fd5b5f73ffffffffffffffffffffffffffffffffffffffff168173ffffffffffffffffffffffffffffffffffffffff1603611cd5576040517f08c379a0000000000000000000000000000000000000000000000000000000008152600401611ccc906137b1565b60405180910390fd5b5f60035f9054906101000a900473ffffffffffffffffffffffffffffffffffffffff1690508160035f6101000a81548173ffffffffffffffffffffffffffffffffffffffff021916908373ffffffffffffffffffffffffffffffffffffffff1602179055508173ffffffffffffffffffffffffffffffffffffffff168173ffffffffffffffffffffffffffffffffffffffff167fe9b19ee7c13b55ba40bf47dabf100a8f28bff62b69de096005c1bb2b405cc51e60405160405180910390a35050565b7f0ce23c3e399818cfee81a7ab0880f714e53d7672b08df0fa62f2843416e1ea0981565b611de67f0ce23c3e399818cfee81a7ab0880f714e53d7672b08df0fa62f2843416e1ea0933611357565b611e25576040517f08c379a0000000000000000000000000000000000000000000000000000000008152600401611e1c90613bc9565b60405180910390fd5b611e2d6123a5565b611e356123e6565b8383905086869050148015611e4f57508181905086869050145b611e8e576040517f08c379a0000000000000000000000000000000000000000000000000000000008152600401611e8590613eb2565b60405180910390fd5b6032868690501115611ed5576040517f08c379a0000000000000000000000000000000000000000000000000000000008152600401611ecc90613f1a565b60405180910390fd5b5f5f90505b8686905081101561201a5760065f888884818110611efb57611efa613f38565b5b9050602002016020810190611f109190613180565b73ffffffffffffffffffffffffffffffffffffffff1673ffffffffffffffffffffffffffffffffffffffff1681526020019081526020015f205f868684818110611f5d57611f5c613f38565b5b9050602002013581526020019081526020015f205f9054906101000a900460ff16158015611fa357505f838383818110611f9a57611f99613f38565b5b90506020020135115b1561200d5761200c878783818110611fbe57611fbd613f38565b5b9050602002016020810190611fd39190613180565b868684818110611fe657611fe5613f38565b5b9050602002013585858581811061200057611fff613f38565b5b90506020020135612a2e565b5b8080600101915050611eda565b50612023612a14565b505050505050565b5f60065f8473ffffffffffffffffffffffffffffffffffffffff1673ffffffffffffffffffffffffffffffffffffffff1681526020019081526020015f205f8381526020019081526020015f205f9054906101000a900460ff16905092915050565b5f7f01ffc9a7000000000000000000000000000000000000000000000000000000007bffffffffffffffffffffffffffffffffffffffffffffffffffffffff1916827bffffffffffffffffffffffffffffffffffffffffffffffffffffffff1916149050919050565b612107816121026121f3565b612e0d565b50565b5f6121158383611357565b6121e9576001805f8581526020019081526020015f205f015f8473ffffffffffffffffffffffffffffffffffffffff1673ffffffffffffffffffffffffffffffffffffffff1681526020019081526020015f205f6101000a81548160ff0219169083151502179055506121866121f3565b73ffffffffffffffffffffffffffffffffffffffff168273ffffffffffffffffffffffffffffffffffffffff16847f2f8788117e7eff1d82e926ec794901d17c78024a50270940304540a733656f0d60405160405180910390a4600190506121ed565b5f90505b92915050565b5f33905090565b5f6122058383611357565b156122da575f60015f8581526020019081526020015f205f015f8473ffffffffffffffffffffffffffffffffffffffff1673ffffffffffffffffffffffffffffffffffffffff1681526020019081526020015f205f6101000a81548160ff0219169083151502179055506122776121f3565b73ffffffffffffffffffffffffffffffffffffffff168273ffffffffffffffffffffffffffffffffffffffff16847ff6391f5c32d9c69d2a47ea670b442974b53935d1edc7fd64eb21e047a839171b60405160405180910390a4600190506122de565b5f90505b92915050565b6122ec612e5e565b5f5f5f6101000a81548160ff0219169083151502179055507f5db9ee0a495bf2e6ff9c91a7834c1ba4fdd244a5e8aa4e537bd38aeae4b073aa61232d6121f3565b60405161233a91906134a0565b60405180910390a1565b61234c6123a5565b60015f5f6101000a81548160ff0219169083151502179055507f62e78cea01bee320cd4e420270b5ea74000d11b0c9f74754ebdbfc544b05a25861238e6121f3565b60405161239b91906134a0565b60405180910390a1565b6123ad610988565b156123e4576040517fd93c066500000000000000000000000000000000000000000000000000000000815260040160405180910390fd5b565b6123ee612e9e565b60026124006123fb612edf565b612f08565b5f0181905550565b5f60045f8373ffffffffffffffffffffffffffffffffffffffff1673ffffffffffffffffffffffffffffffffffffffff1681526020019081526020015f2054905069032d26d12e980b60000081101580156124aa575060085f8373ffffffffffffffffffffffffffffffffffffffff1673ffffffffffffffffffffffffffffffffffffffff1681526020019081526020015f205f9054906101000a900460ff16155b1561272e57600160085f8473ffffffffffffffffffffffffffffffffffffffff1673ffffffffffffffffffffffffffffffffffffffff1681526020019081526020015f205f6101000a81548160ff0219169083151502179055505f686c6b935b8bbd40000090508060045f8573ffffffffffffffffffffffffffffffffffffffff1673ffffffffffffffffffffffffffffffffffffffff1681526020019081526020015f205f82825461255d9190613aa8565b9250508190555060035f9054906101000a900473ffffffffffffffffffffffffffffffffffffffff1673ffffffffffffffffffffffffffffffffffffffff166380dc8b06846040518263ffffffff1660e01b81526004016125be91906134a0565b602060405180830381865afa1580156125d9573d5f5f3e3d5ffd5b505050506040513d601f19601f820116820180604052508101906125fd91906136d4565b1561268c5760035f9054906101000a900473ffffffffffffffffffffffffffffffffffffffff1673ffffffffffffffffffffffffffffffffffffffff1663871ff40584836040518363ffffffff1660e01b815260040161265e929190613683565b5f604051808303815f87803b158015612675575f5ffd5b505af1158015612687573d5f5f3e3d5ffd5b505050505b8273ffffffffffffffffffffffffffffffffffffffff167fc7e43f7cf2e59223003b33abd1894f6508da83bef374708c01e19d4a65d4d62b826040516126d29190613f87565b60405180910390a28273ffffffffffffffffffffffffffffffffffffffff167fac5e3ed0ccb5aba6bb73488fb597b4196fd1afe9c893ddeaad25dd71b31ed53c826040516127209190613ffd565b60405180910390a250612a10565b69010f0cf064dd59200000811015801561278f575060075f8373ffffffffffffffffffffffffffffffffffffffff1673ffffffffffffffffffffffffffffffffffffffff1681526020019081526020015f205f9054906101000a900460ff16155b15612a0f57600160075f8473ffffffffffffffffffffffffffffffffffffffff1673ffffffffffffffffffffffffffffffffffffffff1681526020019081526020015f205f6101000a81548160ff0219169083151502179055505f683635c9adc5dea0000090508060045f8573ffffffffffffffffffffffffffffffffffffffff1673ffffffffffffffffffffffffffffffffffffffff1681526020019081526020015f205f8282546128429190613aa8565b9250508190555060035f9054906101000a900473ffffffffffffffffffffffffffffffffffffffff1673ffffffffffffffffffffffffffffffffffffffff166380dc8b06846040518263ffffffff1660e01b81526004016128a391906134a0565b602060405180830381865afa1580156128be573d5f5f3e3d5ffd5b505050506040513d601f19601f820116820180604052508101906128e291906136d4565b156129715760035f9054906101000a900473ffffffffffffffffffffffffffffffffffffffff1673ffffffffffffffffffffffffffffffffffffffff1663871ff40584836040518363ffffffff1660e01b8152600401612943929190613683565b5f604051808303815f87803b15801561295a575f5ffd5b505af115801561296c573d5f5f3e3d5ffd5b505050505b8273ffffffffffffffffffffffffffffffffffffffff167fc7e43f7cf2e59223003b33abd1894f6508da83bef374708c01e19d4a65d4d62b826040516129b7919061404b565b60405180910390a28273ffffffffffffffffffffffffffffffffffffffff167fac5e3ed0ccb5aba6bb73488fb597b4196fd1afe9c893ddeaad25dd71b31ed53c82604051612a0591906140c1565b60405180910390a2505b5b5050565b6001612a26612a21612edf565b612f08565b5f0181905550565b600160065f8573ffffffffffffffffffffffffffffffffffffffff1673ffffffffffffffffffffffffffffffffffffffff1681526020019081526020015f205f8481526020019081526020015f205f6101000a81548160ff0219169083151502179055505f600a670de0b6b3a764000083612aa99190613cb7565b612ab39190613d25565b90508060045f8673ffffffffffffffffffffffffffffffffffffffff1673ffffffffffffffffffffffffffffffffffffffff1681526020019081526020015f205f828254612b019190613aa8565b92505081905550600160055f8673ffffffffffffffffffffffffffffffffffffffff1673ffffffffffffffffffffffffffffffffffffffff1681526020019081526020015f205f828254612b559190613aa8565b9250508190555060025f9054906101000a900473ffffffffffffffffffffffffffffffffffffffff1673ffffffffffffffffffffffffffffffffffffffff166323b872dd3330846040518463ffffffff1660e01b8152600401612bba93929190613d55565b6020604051808303815f875af1158015612bd6573d5f5f3e3d5ffd5b505050506040513d601f19601f82011682018060405250810190612bfa91906136d4565b612c39576040517f08c379a0000000000000000000000000000000000000000000000000000000008152600401612c3090613dd4565b60405180910390fd5b60035f9054906101000a900473ffffffffffffffffffffffffffffffffffffffff1673ffffffffffffffffffffffffffffffffffffffff166380dc8b06856040518263ffffffff1660e01b8152600401612c9391906134a0565b602060405180830381865afa158015612cae573d5f5f3e3d5ffd5b505050506040513d601f19601f82011682018060405250810190612cd291906136d4565b15612d615760035f9054906101000a900473ffffffffffffffffffffffffffffffffffffffff1673ffffffffffffffffffffffffffffffffffffffff1663871ff40585836040518363ffffffff1660e01b8152600401612d33929190613683565b5f604051808303815f87803b158015612d4a575f5ffd5b505af1158015612d5c573d5f5f3e3d5ffd5b505050505b828473ffffffffffffffffffffffffffffffffffffffff167fb19db0da2fcbedc9057d111843a97780e1d3334a38f64062e8f5f5871544379f84604051612da891906131ba565b60405180910390a38373ffffffffffffffffffffffffffffffffffffffff167fac5e3ed0ccb5aba6bb73488fb597b4196fd1afe9c893ddeaad25dd71b31ed53c82604051612df69190613e3c565b60405180910390a2612e0784612408565b50505050565b612e178282611357565b612e5a5780826040517fe2517d3f000000000000000000000000000000000000000000000000000000008152600401612e519291906140ed565b60405180910390fd5b5050565b612e66610988565b612e9c576040517f8dfc202b00000000000000000000000000000000000000000000000000000000815260040160405180910390fd5b565b612ea6612f11565b15612edd576040517f3ee5aeb500000000000000000000000000000000000000000000000000000000815260040160405180910390fd5b565b5f7f9b779b17422d0df92223018b32b4d1fa46e071723d6817e2486d003becc55f005f1b905090565b5f819050919050565b5f6002612f24612f1f612edf565b612f08565b5f015414905090565b5f604051905090565b5f5ffd5b5f5ffd5b5f7fffffffff0000000000000000000000000000000000000000000000000000000082169050919050565b612f7281612f3e565b8114612f7c575f5ffd5b50565b5f81359050612f8d81612f69565b92915050565b5f60208284031215612fa857612fa7612f36565b5b5f612fb584828501612f7f565b91505092915050565b5f8115159050919050565b612fd281612fbe565b82525050565b5f602082019050612feb5f830184612fc9565b92915050565b5f73ffffffffffffffffffffffffffffffffffffffff82169050919050565b5f61301a82612ff1565b9050919050565b61302a81613010565b8114613034575f5ffd5b50565b5f8135905061304581613021565b92915050565b5f819050919050565b61305d8161304b565b8114613067575f5ffd5b50565b5f8135905061307881613054565b92915050565b5f5f6040838503121561309457613093612f36565b5b5f6130a185828601613037565b92505060206130b28582860161306a565b9150509250929050565b5f819050919050565b6130ce816130bc565b81146130d8575f5ffd5b50565b5f813590506130e9816130c5565b92915050565b5f6020828403121561310457613103612f36565b5b5f613111848285016130db565b91505092915050565b613123816130bc565b82525050565b5f60208201905061313c5f83018461311a565b92915050565b5f5f6040838503121561315857613157612f36565b5b5f613165858286016130db565b925050602061317685828601613037565b9150509250929050565b5f6020828403121561319557613194612f36565b5b5f6131a284828501613037565b91505092915050565b6131b48161304b565b82525050565b5f6020820190506131cd5f8301846131ab565b92915050565b5f5ffd5b5f5ffd5b5f601f19601f8301169050919050565b7f4e487b71000000000000000000000000000000000000000000000000000000005f52604160045260245ffd5b613221826131db565b810181811067ffffffffffffffff821117156132405761323f6131eb565b5b80604052505050565b5f613252612f2d565b905061325e8282613218565b919050565b5f67ffffffffffffffff82111561327d5761327c6131eb565b5b613286826131db565b9050602081019050919050565b828183375f83830152505050565b5f6132b36132ae84613263565b613249565b9050828152602081018484840111156132cf576132ce6131d7565b5b6132da848285613293565b509392505050565b5f82601f8301126132f6576132f56131d3565b5b81356133068482602086016132a1565b91505092915050565b5f5f6040838503121561332557613324612f36565b5b5f61333285828601613037565b925050602083013567ffffffffffffffff81111561335357613352612f3a565b5b61335f858286016132e2565b9150509250929050565b5f81519050919050565b5f82825260208201905092915050565b8281835e5f83830152505050565b5f61339b82613369565b6133a58185613373565b93506133b5818560208601613383565b6133be816131db565b840191505092915050565b5f6020820190508181035f8301526133e18184613391565b905092915050565b5f60a0820190506133fc5f8301886131ab565b61340960208301876131ab565b818103604083015261341b8186613391565b905061342a6060830185612fc9565b6134376080830184612fc9565b9695505050505050565b5f5f5f6060848603121561345857613457612f36565b5b5f61346586828701613037565b93505060206134768682870161306a565b92505060406134878682870161306a565b9150509250925092565b61349a81613010565b82525050565b5f6020820190506134b35f830184613491565b92915050565b5f5ffd5b5f5ffd5b5f5f83601f8401126134d6576134d56131d3565b5b8235905067ffffffffffffffff8111156134f3576134f26134b9565b5b60208301915083602082028301111561350f5761350e6134bd565b5b9250929050565b5f5f83601f84011261352b5761352a6131d3565b5b8235905067ffffffffffffffff811115613548576135476134b9565b5b602083019150836020820283011115613564576135636134bd565b5b9250929050565b5f5f5f5f5f5f6060878903121561358557613584612f36565b5b5f87013567ffffffffffffffff8111156135a2576135a1612f3a565b5b6135ae89828a016134c1565b9650965050602087013567ffffffffffffffff8111156135d1576135d0612f3a565b5b6135dd89828a01613516565b9450945050604087013567ffffffffffffffff811115613600576135ff612f3a565b5b61360c89828a01613516565b92509250509295509295509295565b7f43616c6c6572206973206e6f742061646d696e000000000000000000000000005f82015250565b5f61364f601383613373565b915061365a8261361b565b602082019050919050565b5f6020820190508181035f83015261367c81613643565b9050919050565b5f6040820190506136965f830185613491565b6136a360208301846131ab565b9392505050565b6136b381612fbe565b81146136bd575f5ffd5b50565b5f815190506136ce816136aa565b92915050565b5f602082840312156136e9576136e8612f36565b5b5f6136f6848285016136c0565b91505092915050565b7f5472616e73666572206661696c656400000000000000000000000000000000005f82015250565b5f613733600f83613373565b915061373e826136ff565b602082019050919050565b5f6020820190508181035f83015261376081613727565b9050919050565b7f496e76616c6964206164647265737300000000000000000000000000000000005f82015250565b5f61379b600f83613373565b91506137a682613767565b602082019050919050565b5f6020820190508181035f8301526137c88161378f565b9050919050565b7f496e76616c69642073747564656e7420616464726573730000000000000000005f82015250565b5f613803601783613373565b915061380e826137cf565b602082019050919050565b5f6020820190508181035f830152613830816137f7565b9050919050565b5f81905092915050565b7f53696c76657200000000000000000000000000000000000000000000000000005f82015250565b5f613875600683613837565b915061388082613841565b600682019050919050565b5f61389582613869565b9150819050919050565b5f6138a982613369565b6138b38185613837565b93506138c3818560208601613383565b80840191505092915050565b5f6138da828461389f565b915081905092915050565b7f53696c76657220626f6e757320616c726561647920636c61696d6564000000005f82015250565b5f613919601c83613373565b9150613924826138e5565b602082019050919050565b5f6020820190508181035f8301526139468161390d565b9050919050565b7f476f6c64000000000000000000000000000000000000000000000000000000005f82015250565b5f613981600483613837565b915061398c8261394d565b600482019050919050565b5f6139a182613975565b9150819050919050565b7f476f6c6420626f6e757320616c726561647920636c61696d65640000000000005f82015250565b5f6139df601a83613373565b91506139ea826139ab565b602082019050919050565b5f6020820190508181035f830152613a0c816139d3565b9050919050565b7f496e76616c6964207469657200000000000000000000000000000000000000005f82015250565b5f613a47600c83613373565b9150613a5282613a13565b602082019050919050565b5f6020820190508181035f830152613a7481613a3b565b9050919050565b7f4e487b71000000000000000000000000000000000000000000000000000000005f52601160045260245ffd5b5f613ab28261304b565b9150613abd8361304b565b9250828201905080821115613ad557613ad4613a7b565b5b92915050565b5f6040820190508181035f830152613af38185613391565b9050613b0260208301846131ab565b9392505050565b7f4d616e75616c207469657220626f6e75730000000000000000000000000000005f82015250565b5f613b3d601183613373565b9150613b4882613b09565b602082019050919050565b5f604082019050613b665f8301846131ab565b8181036020830152613b7781613b31565b905092915050565b7f43616c6c6572206973206e6f74207665726966696572000000000000000000005f82015250565b5f613bb3601683613373565b9150613bbe82613b7f565b602082019050919050565b5f6020820190508181035f830152613be081613ba7565b9050919050565b7f506f696e7473206d7573742062652067726561746572207468616e20300000005f82015250565b5f613c1b601d83613373565b9150613c2682613be7565b602082019050919050565b5f6020820190508181035f830152613c4881613c0f565b9050919050565b7f5175697a20616c726561647920636f6d706c65746564000000000000000000005f82015250565b5f613c83601683613373565b9150613c8e82613c4f565b602082019050919050565b5f6020820190508181035f830152613cb081613c77565b9050919050565b5f613cc18261304b565b9150613ccc8361304b565b9250828202613cda8161304b565b91508282048414831517613cf157613cf0613a7b565b5b5092915050565b7f4e487b71000000000000000000000000000000000000000000000000000000005f52601260045260245ffd5b5f613d2f8261304b565b9150613d3a8361304b565b925082613d4a57613d49613cf8565b5b828204905092915050565b5f606082019050613d685f830186613491565b613d756020830185613491565b613d8260408301846131ab565b949350505050565b7f546f6b656e207472616e73666572206661696c656400000000000000000000005f82015250565b5f613dbe601583613373565b9150613dc982613d8a565b602082019050919050565b5f6020820190508181035f830152613deb81613db2565b9050919050565b7f5175697a20636f6d706c6574696f6e20726577617264000000000000000000005f82015250565b5f613e26601683613373565b9150613e3182613df2565b602082019050919050565b5f604082019050613e4f5f8301846131ab565b8181036020830152613e6081613e1a565b905092915050565b7f4172726179206c656e677468206d69736d6174636800000000000000000000005f82015250565b5f613e9c601583613373565b9150613ea782613e68565b602082019050919050565b5f6020820190508181035f830152613ec981613e90565b9050919050565b7f42617463682073697a6520746f6f206c617267650000000000000000000000005f82015250565b5f613f04601483613373565b9150613f0f82613ed0565b602082019050919050565b5f6020820190508181035f830152613f3181613ef8565b9050919050565b7f4e487b71000000000000000000000000000000000000000000000000000000005f52603260045260245ffd5b5f613f71600483613373565b9150613f7c8261394d565b602082019050919050565b5f6040820190508181035f830152613f9e81613f65565b9050613fad60208301846131ab565b92915050565b7f476f6c64207469657220626f6e757300000000000000000000000000000000005f82015250565b5f613fe7600f83613373565b9150613ff282613fb3565b602082019050919050565b5f6040820190506140105f8301846131ab565b818103602083015261402181613fdb565b905092915050565b5f614035600683613373565b915061404082613841565b602082019050919050565b5f6040820190508181035f83015261406281614029565b905061407160208301846131ab565b92915050565b7f53696c766572207469657220626f6e75730000000000000000000000000000005f82015250565b5f6140ab601183613373565b91506140b682614077565b602082019050919050565b5f6040820190506140d45f8301846131ab565b81810360208301526140e58161409f565b905092915050565b5f6040820190506141005f830185613491565b61410d602083018461311a565b939250505056fea2646970667358221220e2385b04a9fc5ca8d238d3ccb0d2b313d857a16dd77bee7824949953ce087a3c64736f6c634300081e0033",
    "linkReferences": {}
  },
  "methodIdentifiers": {
    "ADMIN_ROLE()": "75b238fc",
    "DEFAULT_ADMIN_ROLE()": "a217fddf",
    "GOLD_THRESHOLD()": "56973974",
    "SILVER_THRESHOLD()": "c1a0db30",
    "VERIFIER_ROLE()": "e7705db6",
    "awardCredits(address,uint256,uint256)": "b1a141b7",
    "batchAwardCredits(address[],uint256[],uint256[])": "e7dda12c",
    "emergencyTokenWithdraw(address,uint256)": "317cb151",
    "getQuizzesCompleted(address)": "66f2437e",
    "getRoleAdmin(bytes32)": "248a9ca3",
    "getStudentRewards(address)": "6dd9afa4",
    "getStudentStats(address)": "9b6a84a7",
    "getStudentTier(address)": "9175b9e3",
    "goldBonusClaimed(address)": "dfa13ff0",
    "grantRole(bytes32,address)": "2f2ff15d",
    "hasRole(bytes32,address)": "91d14854",
    "isQuizCompleted(address,uint256)": "fe032ee0",
    "learnCreditToken()": "b89e8a15",
    "manualAwardTierBonus(address,string)": "8aee0eb0",
    "pause()": "8456cb59",
    "paused()": "5c975abb",
    "quizCompletionStatus(address,uint256)": "23428cb9",
    "quizzesCompleted(address)": "6bd8cac3",
    "renounceRole(bytes32,address)": "36568abe",
    "revokeRole(bytes32,address)": "d547741f",
    "silverBonusClaimed(address)": "511c5948",
    "studentRewards(address)": "69154310",
    "supportsInterface(bytes4)": "01ffc9a7",
    "unpause()": "3f4ba83a",
    "updateTokenAddress(address)": "6691461a",
    "updateWalletContract(address)": "e6aa6ad3",
    "walletContract()": "d0ed5c2f"
  },
  "id": 30
}