{
  "abi": [
    {
      "type": "constructor",
      "inputs": [],
      "stateMutability": "nonpayable"
    },
    {
      "type": "receive",
      "stateMutability": "payable"
    },
    {
      "type": "function",
      "name": "ADMIN_ROLE",
      "inputs": [],
      "outputs": [
        {
          "name": "",
          "type": "bytes32",
          "internalType": "bytes32"
        }
      ],
      "stateMutability": "view"
    },
    {
      "type": "function",
      "name": "DEFAULT_ADMIN_ROLE",
      "inputs": [],
      "outputs": [
        {
          "name": "",
          "type": "bytes32",
          "internalType": "bytes32"
        }
      ],
      "stateMutability": "view"
    },
    {
      "type": "function",
      "name": "TREASURER_ROLE",
      "inputs": [],
      "outputs": [
        {
          "name": "",
          "type": "bytes32",
          "internalType": "bytes32"
        }
      ],
      "stateMutability": "view"
    },
    {
      "type": "function",
      "name": "approveDisbursement",
      "inputs": [
        {
          "name": "disbursementId",
          "type": "uint256",
          "internalType": "uint256"
        }
      ],
      "outputs": [],
      "stateMutability": "nonpayable"
    },
    {
      "type": "function",
      "name": "batchApproveDisbursements",
      "inputs": [
        {
          "name": "disbursementIds",
          "type": "uint256[]",
          "internalType": "uint256[]"
        }
      ],
      "outputs": [],
      "stateMutability": "nonpayable"
    },
    {
      "type": "function",
      "name": "disbursements",
      "inputs": [
        {
          "name": "",
          "type": "uint256",
          "internalType": "uint256"
        }
      ],
      "outputs": [
        {
          "name": "student",
          "type": "address",
          "internalType": "address"
        },
        {
          "name": "amount",
          "type": "uint256",
          "internalType": "uint256"
        },
        {
          "name": "school",
          "type": "string",
          "internalType": "string"
        },
        {
          "name": "timestamp",
          "type": "uint256",
          "internalType": "uint256"
        },
        {
          "name": "approved",
          "type": "bool",
          "internalType": "bool"
        },
        {
          "name": "executed",
          "type": "bool",
          "internalType": "bool"
        },
        {
          "name": "purpose",
          "type": "string",
          "internalType": "string"
        }
      ],
      "stateMutability": "view"
    },
    {
      "type": "function",
      "name": "donate",
      "inputs": [],
      "outputs": [],
      "stateMutability": "payable"
    },
    {
      "type": "function",
      "name": "donateForSchool",
      "inputs": [
        {
          "name": "school",
          "type": "string",
          "internalType": "string"
        }
      ],
      "outputs": [],
      "stateMutability": "payable"
    },
    {
      "type": "function",
      "name": "donors",
      "inputs": [
        {
          "name": "",
          "type": "address",
          "internalType": "address"
        }
      ],
      "outputs": [
        {
          "name": "walletAddress",
          "type": "address",
          "internalType": "address"
        },
        {
          "name": "organization",
          "type": "string",
          "internalType": "string"
        },
        {
          "name": "totalContributed",
          "type": "uint256",
          "internalType": "uint256"
        },
        {
          "name": "donationCount",
          "type": "uint256",
          "internalType": "uint256"
        }
      ],
      "stateMutability": "view"
    },
    {
      "type": "function",
      "name": "emergencyWithdraw",
      "inputs": [
        {
          "name": "recipient",
          "type": "address",
          "internalType": "address payable"
        },
        {
          "name": "amount",
          "type": "uint256",
          "internalType": "uint256"
        }
      ],
      "outputs": [],
      "stateMutability": "nonpayable"
    },
    {
      "type": "function",
      "name": "executeDisbursement",
      "inputs": [
        {
          "name": "disbursementId",
          "type": "uint256",
          "internalType": "uint256"
        }
      ],
      "outputs": [],
      "stateMutability": "nonpayable"
    },
    {
      "type": "function",
      "name": "getDisbursementDetails",
      "inputs": [
        {
          "name": "disbursementId",
          "type": "uint256",
          "internalType": "uint256"
        }
      ],
      "outputs": [
        {
          "name": "student",
          "type": "address",
          "internalType": "address"
        },
        {
          "name": "amount",
          "type": "uint256",
          "internalType": "uint256"
        },
        {
          "name": "school",
          "type": "string",
          "internalType": "string"
        },
        {
          "name": "timestamp",
          "type": "uint256",
          "internalType": "uint256"
        },
        {
          "name": "approved",
          "type": "bool",
          "internalType": "bool"
        },
        {
          "name": "executed",
          "type": "bool",
          "internalType": "bool"
        },
        {
          "name": "purpose",
          "type": "string",
          "internalType": "string"
        }
      ],
      "stateMutability": "view"
    },
    {
      "type": "function",
      "name": "getDonorInfo",
      "inputs": [
        {
          "name": "donor",
          "type": "address",
          "internalType": "address"
        }
      ],
      "outputs": [
        {
          "name": "organization",
          "type": "string",
          "internalType": "string"
        },
        {
          "name": "totalContributed",
          "type": "uint256",
          "internalType": "uint256"
        },
        {
          "name": "donationCount",
          "type": "uint256",
          "internalType": "uint256"
        }
      ],
      "stateMutability": "view"
    },
    {
      "type": "function",
      "name": "getPendingDisbursements",
      "inputs": [],
      "outputs": [
        {
          "name": "",
          "type": "uint256[]",
          "internalType": "uint256[]"
        }
      ],
      "stateMutability": "view"
    },
    {
      "type": "function",
      "name": "getPoolInfo",
      "inputs": [],
      "outputs": [
        {
          "name": "balance",
          "type": "uint256",
          "internalType": "uint256"
        },
        {
          "name": "disbursed",
          "type": "uint256",
          "internalType": "uint256"
        },
        {
          "name": "disbursementCount",
          "type": "uint256",
          "internalType": "uint256"
        },
        {
          "name": "contractBalance",
          "type": "uint256",
          "internalType": "uint256"
        }
      ],
      "stateMutability": "view"
    },
    {
      "type": "function",
      "name": "getRoleAdmin",
      "inputs": [
        {
          "name": "role",
          "type": "bytes32",
          "internalType": "bytes32"
        }
      ],
      "outputs": [
        {
          "name": "",
          "type": "bytes32",
          "internalType": "bytes32"
        }
      ],
      "stateMutability": "view"
    },
    {
      "type": "function",
      "name": "getSchoolBalance",
      "inputs": [
        {
          "name": "school",
          "type": "string",
          "internalType": "string"
        }
      ],
      "outputs": [
        {
          "name": "",
          "type": "uint256",
          "internalType": "uint256"
        }
      ],
      "stateMutability": "view"
    },
    {
      "type": "function",
      "name": "getStudentDisbursements",
      "inputs": [
        {
          "name": "student",
          "type": "address",
          "internalType": "address"
        }
      ],
      "outputs": [
        {
          "name": "",
          "type": "uint256",
          "internalType": "uint256"
        }
      ],
      "stateMutability": "view"
    },
    {
      "type": "function",
      "name": "getTotalDisbursements",
      "inputs": [],
      "outputs": [
        {
          "name": "",
          "type": "uint256",
          "internalType": "uint256"
        }
      ],
      "stateMutability": "view"
    },
    {
      "type": "function",
      "name": "grantRole",
      "inputs": [
        {
          "name": "role",
          "type": "bytes32",
          "internalType": "bytes32"
        },
        {
          "name": "account",
          "type": "address",
          "internalType": "address"
        }
      ],
      "outputs": [],
      "stateMutability": "nonpayable"
    },
    {
      "type": "function",
      "name": "hasRole",
      "inputs": [
        {
          "name": "role",
          "type": "bytes32",
          "internalType": "bytes32"
        },
        {
          "name": "account",
          "type": "address",
          "internalType": "address"
        }
      ],
      "outputs": [
        {
          "name": "",
          "type": "bool",
          "internalType": "bool"
        }
      ],
      "stateMutability": "view"
    },
    {
      "type": "function",
      "name": "minDonationAmount",
      "inputs": [],
      "outputs": [
        {
          "name": "",
          "type": "uint256",
          "internalType": "uint256"
        }
      ],
      "stateMutability": "view"
    },
    {
      "type": "function",
      "name": "pause",
      "inputs": [],
      "outputs": [],
      "stateMutability": "nonpayable"
    },
    {
      "type": "function",
      "name": "paused",
      "inputs": [],
      "outputs": [
        {
          "name": "",
          "type": "bool",
          "internalType": "bool"
        }
      ],
      "stateMutability": "view"
    },
    {
      "type": "function",
      "name": "registerDonor",
      "inputs": [
        {
          "name": "donor",
          "type": "address",
          "internalType": "address"
        },
        {
          "name": "organization",
          "type": "string",
          "internalType": "string"
        }
      ],
      "outputs": [],
      "stateMutability": "nonpayable"
    },
    {
      "type": "function",
      "name": "rejectDisbursement",
      "inputs": [
        {
          "name": "disbursementId",
          "type": "uint256",
          "internalType": "uint256"
        }
      ],
      "outputs": [],
      "stateMutability": "nonpayable"
    },
    {
      "type": "function",
      "name": "renounceRole",
      "inputs": [
        {
          "name": "role",
          "type": "bytes32",
          "internalType": "bytes32"
        },
        {
          "name": "callerConfirmation",
          "type": "address",
          "internalType": "address"
        }
      ],
      "outputs": [],
      "stateMutability": "nonpayable"
    },
    {
      "type": "function",
      "name": "requestDisbursement",
      "inputs": [
        {
          "name": "student",
          "type": "address",
          "internalType": "address"
        },
        {
          "name": "amount",
          "type": "uint256",
          "internalType": "uint256"
        },
        {
          "name": "school",
          "type": "string",
          "internalType": "string"
        },
        {
          "name": "purpose",
          "type": "string",
          "internalType": "string"
        }
      ],
      "outputs": [
        {
          "name": "",
          "type": "uint256",
          "internalType": "uint256"
        }
      ],
      "stateMutability": "nonpayable"
    },
    {
      "type": "function",
      "name": "revokeRole",
      "inputs": [
        {
          "name": "role",
          "type": "bytes32",
          "internalType": "bytes32"
        },
        {
          "name": "account",
          "type": "address",
          "internalType": "address"
        }
      ],
      "outputs": [],
      "stateMutability": "nonpayable"
    },
    {
      "type": "function",
      "name": "schoolFunds",
      "inputs": [
        {
          "name": "",
          "type": "string",
          "internalType": "string"
        }
      ],
      "outputs": [
        {
          "name": "",
          "type": "uint256",
          "internalType": "uint256"
        }
      ],
      "stateMutability": "view"
    },
    {
      "type": "function",
      "name": "studentDisbursements",
      "inputs": [
        {
          "name": "",
          "type": "address",
          "internalType": "address"
        }
      ],
      "outputs": [
        {
          "name": "",
          "type": "uint256",
          "internalType": "uint256"
        }
      ],
      "stateMutability": "view"
    },
    {
      "type": "function",
      "name": "supportsInterface",
      "inputs": [
        {
          "name": "interfaceId",
          "type": "bytes4",
          "internalType": "bytes4"
        }
      ],
      "outputs": [
        {
          "name": "",
          "type": "bool",
          "internalType": "bool"
        }
      ],
      "stateMutability": "view"
    },
    {
      "type": "function",
      "name": "totalDisbursed",
      "inputs": [],
      "outputs": [
        {
          "name": "",
          "type": "uint256",
          "internalType": "uint256"
        }
      ],
      "stateMutability": "view"
    },
    {
      "type": "function",
      "name": "totalPoolBalance",
      "inputs": [],
      "outputs": [
        {
          "name": "",
          "type": "uint256",
          "internalType": "uint256"
        }
      ],
      "stateMutability": "view"
    },
    {
      "type": "function",
      "name": "unpause",
      "inputs": [],
      "outputs": [],
      "stateMutability": "nonpayable"
    },
    {
      "type": "function",
      "name": "updateMinDonation",
      "inputs": [
        {
          "name": "newMinimum",
          "type": "uint256",
          "internalType": "uint256"
        }
      ],
      "outputs": [],
      "stateMutability": "nonpayable"
    },
    {
      "type": "event",
      "name": "DisbursementApproved",
      "inputs": [
        {
          "name": "disbursementId",
          "type": "uint256",
          "indexed": true,
          "internalType": "uint256"
        },
        {
          "name": "student",
          "type": "address",
          "indexed": true,
          "internalType": "address"
        },
        {
          "name": "amount",
          "type": "uint256",
          "indexed": false,
          "internalType": "uint256"
        },
        {
          "name": "school",
          "type": "string",
          "indexed": false,
          "internalType": "string"
        }
      ],
      "anonymous": false
    },
    {
      "type": "event",
      "name": "DisbursementExecuted",
      "inputs": [
        {
          "name": "disbursementId",
          "type": "uint256",
          "indexed": true,
          "internalType": "uint256"
        },
        {
          "name": "student",
          "type": "address",
          "indexed": true,
          "internalType": "address"
        },
        {
          "name": "amount",
          "type": "uint256",
          "indexed": false,
          "internalType": "uint256"
        }
      ],
      "anonymous": false
    },
    {
      "type": "event",
      "name": "DisbursementRejected",
      "inputs": [
        {
          "name": "disbursementId",
          "type": "uint256",
          "indexed": true,
          "internalType": "uint256"
        },
        {
          "name": "student",
          "type": "address",
          "indexed": true,
          "internalType": "address"
        },
        {
          "name": "amount",
          "type": "uint256",
          "indexed": false,
          "internalType": "uint256"
        }
      ],
      "anonymous": false
    },
    {
      "type": "event",
      "name": "DisbursementRequested",
      "inputs": [
        {
          "name": "disbursementId",
          "type": "uint256",
          "indexed": true,
          "internalType": "uint256"
        },
        {
          "name": "student",
          "type": "address",
          "indexed": true,
          "internalType": "address"
        },
        {
          "name": "amount",
          "type": "uint256",
          "indexed": false,
          "internalType": "uint256"
        },
        {
          "name": "school",
          "type": "string",
          "indexed": false,
          "internalType": "string"
        }
      ],
      "anonymous": false
    },
    {
      "type": "event",
      "name": "DonationReceived",
      "inputs": [
        {
          "name": "donor",
          "type": "address",
          "indexed": true,
          "internalType": "address"
        },
        {
          "name": "amount",
          "type": "uint256",
          "indexed": false,
          "internalType": "uint256"
        },
        {
          "name": "school",
          "type": "string",
          "indexed": false,
          "internalType": "string"
        }
      ],
      "anonymous": false
    },
    {
      "type": "event",
      "name": "DonorRegistered",
      "inputs": [
        {
          "name": "donor",
          "type": "address",
          "indexed": true,
          "internalType": "address"
        },
        {
          "name": "organization",
          "type": "string",
          "indexed": false,
          "internalType": "string"
        }
      ],
      "anonymous": false
    },
    {
      "type": "event",
      "name": "MinDonationUpdated",
      "inputs": [
        {
          "name": "oldAmount",
          "type": "uint256",
          "indexed": false,
          "internalType": "uint256"
        },
        {
          "name": "newAmount",
          "type": "uint256",
          "indexed": false,
          "internalType": "uint256"
        }
      ],
      "anonymous": false
    },
    {
      "type": "event",
      "name": "Paused",
      "inputs": [
        {
          "name": "account",
          "type": "address",
          "indexed": false,
          "internalType": "address"
        }
      ],
      "anonymous": false
    },
    {
      "type": "event",
      "name": "RoleAdminChanged",
      "inputs": [
        {
          "name": "role",
          "type": "bytes32",
          "indexed": true,
          "internalType": "bytes32"
        },
        {
          "name": "previousAdminRole",
          "type": "bytes32",
          "indexed": true,
          "internalType": "bytes32"
        },
        {
          "name": "newAdminRole",
          "type": "bytes32",
          "indexed": true,
          "internalType": "bytes32"
        }
      ],
      "anonymous": false
    },
    {
      "type": "event",
      "name": "RoleGranted",
      "inputs": [
        {
          "name": "role",
          "type": "bytes32",
          "indexed": true,
          "internalType": "bytes32"
        },
        {
          "name": "account",
          "type": "address",
          "indexed": true,
          "internalType": "address"
        },
        {
          "name": "sender",
          "type": "address",
          "indexed": true,
          "internalType": "address"
        }
      ],
      "anonymous": false
    },
    {
      "type": "event",
      "name": "RoleRevoked",
      "inputs": [
        {
          "name": "role",
          "type": "bytes32",
          "indexed": true,
          "internalType": "bytes32"
        },
        {
          "name": "account",
          "type": "address",
          "indexed": true,
          "internalType": "address"
        },
        {
          "name": "sender",
          "type": "address",
          "indexed": true,
          "internalType": "address"
        }
      ],
      "anonymous": false
    },
    {
      "type": "event",
      "name": "Unpaused",
      "inputs": [
        {
          "name": "account",
          "type": "address",
          "indexed": false,
          "internalType": "address"
        }
      ],
      "anonymous": false
    },
    {
      "type": "error",
      "name": "AccessControlBadConfirmation",
      "inputs": []
    },
    {
      "type": "error",
      "name": "AccessControlUnauthorizedAccount",
      "inputs": [
        {
          "name": "account",
          "type": "address",
          "internalType": "address"
        },
        {
          "name": "neededRole",
          "type": "bytes32",
          "internalType": "bytes32"
        }
      ]
    },
    {
      "type": "error",
      "name": "EnforcedPause",
      "inputs": []
    },
    {
      "type": "error",
      "name": "ExpectedPause",
      "inputs": []
    },
    {
      "type": "error",
      "name": "ReentrancyGuardReentrantCall",
      "inputs": []
    }
  ],
  "bytecode": {
    "object": "0x608060405266038d7ea4c6800060085534801561001a575f5ffd5b50600161003961002e6100b960201b60201c565b6100e260201b60201c565b5f01819055506100515f5f1b336100eb60201b60201c565b506100827fa49807205ce4d355092ef5a8a18f56e8913cf4a201fbe287825b095693c21775336100eb60201b60201c565b506100b37f3496e2e73c4d42b75d702e60d9e48102720b8691234415963a5a857b86425d07336100eb60201b60201c565b5061024b565b5f7f9b779b17422d0df92223018b32b4d1fa46e071723d6817e2486d003becc55f005f1b905090565b5f819050919050565b5f6100fc83836101e060201b60201c565b6101d6576001805f8581526020019081526020015f205f015f8473ffffffffffffffffffffffffffffffffffffffff1673ffffffffffffffffffffffffffffffffffffffff1681526020019081526020015f205f6101000a81548160ff02191690831515021790555061017361024460201b60201c565b73ffffffffffffffffffffffffffffffffffffffff168273ffffffffffffffffffffffffffffffffffffffff16847f2f8788117e7eff1d82e926ec794901d17c78024a50270940304540a733656f0d60405160405180910390a4600190506101da565b5f90505b92915050565b5f60015f8481526020019081526020015f205f015f8373ffffffffffffffffffffffffffffffffffffffff1673ffffffffffffffffffffffffffffffffffffffff1681526020019081526020015f205f9054906101000a900460ff16905092915050565b5f33905090565b6149af806102585f395ff3fe608060405260043610610212575f3560e01c8063861011b811610117578063c46a60a51161009f578063d547741f1161006e578063d547741f1461082d578063e5da607e14610855578063ed88c68e14610891578063f0a3a97c1461089b578063f57aa95d146108c55761027f565b8063c46a60a51461075c578063ca0cdea81461079a578063cf4ef9c7146107d9578063d009518e146108035761027f565b8063b20e0522116100e6578063b20e05221461066a578063b594c551146106a6578063be890bc5146106e2578063bf95c78d1461070a578063c033e6f4146107345761027f565b8063861011b8146105b457806391d14854146105dc57806395ccea6714610618578063a217fddf146106405761027f565b80634e29cba61161019a5780635c975abb116101695780635c975abb146104f557806360246c881461051f57806375b238fc1461054c578063766d2de8146105765780638456cb591461059e5761027f565b80634e29cba61461041f5780634e312e80146104615780634f6aa571146104895780635026d63e146104cb5761027f565b8063248a9ca3116101e1578063248a9ca3146103415780632f2ff15d1461037d57806332e8f6c4146103a557806336568abe146103e15780633f4ba83a146104095761027f565b806301ffc9a71461028357806306df8f35146102bf57806315ded077146102fb578063160c4cf6146103175761027f565b3661027f573460065f82825461022891906131f6565b925050819055503373ffffffffffffffffffffffffffffffffffffffff167ffa5658cbb5d60363acba0d281bddcf21cc9e7ea6053267531b4cdc36d5df7a8a346040516102759190613292565b60405180910390a2005b5f5ffd5b34801561028e575f5ffd5b506102a960048036038101906102a49190613324565b6108ed565b6040516102b69190613369565b60405180910390f35b3480156102ca575f5ffd5b506102e560048036038101906102e091906133dc565b610966565b6040516102f29190613407565b60405180910390f35b6103156004803603810190610310919061355c565b61097b565b005b348015610322575f5ffd5b5061032b610bf9565b604051610338919061365a565b60405180910390f35b34801561034c575f5ffd5b50610367600480360381019061036291906136ad565b610db4565b60405161037491906136e7565b60405180910390f35b348015610388575f5ffd5b506103a3600480360381019061039e9190613700565b610dd1565b005b3480156103b0575f5ffd5b506103cb60048036038101906103c691906133dc565b610df3565b6040516103d89190613407565b60405180910390f35b3480156103ec575f5ffd5b5061040760048036038101906104029190613700565b610e39565b005b348015610414575f5ffd5b5061041d610eb4565b005b34801561042a575f5ffd5b5061044560048036038101906104409190613768565b610f27565b60405161045897969594939291906137f2565b60405180910390f35b34801561046c575f5ffd5b506104876004803603810190610482919061386d565b6110b8565b005b348015610494575f5ffd5b506104af60048036038101906104aa9190613768565b611309565b6040516104c297969594939291906137f2565b60405180910390f35b3480156104d6575f5ffd5b506104df611580565b6040516104ec9190613407565b60405180910390f35b348015610500575f5ffd5b50610509611586565b6040516105169190613369565b60405180910390f35b34801561052a575f5ffd5b5061053361159a565b60405161054394939291906138c7565b60405180910390f35b348015610557575f5ffd5b506105606115b9565b60405161056d91906136e7565b60405180910390f35b348015610581575f5ffd5b5061059c60048036038101906105979190613768565b6115dd565b005b3480156105a9575f5ffd5b506105b26117cc565b005b3480156105bf575f5ffd5b506105da60048036038101906105d59190613768565b61183f565b005b3480156105e7575f5ffd5b5061060260048036038101906105fd9190613700565b611c64565b60405161060f9190613369565b60405180910390f35b348015610623575f5ffd5b5061063e60048036038101906106399190613945565b611cc8565b005b34801561064b575f5ffd5b50610654611e9f565b60405161066191906136e7565b60405180910390f35b348015610675575f5ffd5b50610690600480360381019061068b9190613983565b611ea5565b60405161069d9190613407565b60405180910390f35b3480156106b1575f5ffd5b506106cc60048036038101906106c7919061355c565b61220b565b6040516106d99190613407565b60405180910390f35b3480156106ed575f5ffd5b5061070860048036038101906107039190613768565b612238565b005b348015610715575f5ffd5b5061071e6122eb565b60405161072b9190613407565b60405180910390f35b34801561073f575f5ffd5b5061075a60048036038101906107559190613768565b6122f1565b005b348015610767575f5ffd5b50610782600480360381019061077d91906133dc565b6125c8565b60405161079193929190613a1f565b60405180910390f35b3480156107a5575f5ffd5b506107c060048036038101906107bb91906133dc565b61272c565b6040516107d09493929190613a5b565b60405180910390f35b3480156107e4575f5ffd5b506107ed6127fd565b6040516107fa9190613407565b60405180910390f35b34801561080e575f5ffd5b50610817612803565b6040516108249190613407565b60405180910390f35b348015610838575f5ffd5b50610853600480360381019061084e9190613700565b61280f565b005b348015610860575f5ffd5b5061087b6004803603810190610876919061355c565b612831565b6040516108889190613407565b60405180910390f35b610899612858565b005b3480156108a6575f5ffd5b506108af612a5c565b6040516108bc91906136e7565b60405180910390f35b3480156108d0575f5ffd5b506108eb60048036038101906108e69190613b02565b612a80565b005b5f7f7965db0b000000000000000000000000000000000000000000000000000000007bffffffffffffffffffffffffffffffffffffffffffffffffffffffff1916827bffffffffffffffffffffffffffffffffffffffffffffffffffffffff1916148061095f575061095e82612d0b565b5b9050919050565b6005602052805f5260405f205f915090505481565b610983612d74565b61098b612db5565b6008543410156109d0576040517f08c379a00000000000000000000000000000000000000000000000000000000081526004016109c790613b97565b60405180910390fd5b5f815111610a13576040517f08c379a0000000000000000000000000000000000000000000000000000000008152600401610a0a90613bff565b60405180910390fd5b34600482604051610a249190613c57565b90815260200160405180910390205f828254610a4091906131f6565b925050819055503460065f828254610a5891906131f6565b925050819055505f73ffffffffffffffffffffffffffffffffffffffff1660035f3373ffffffffffffffffffffffffffffffffffffffff1673ffffffffffffffffffffffffffffffffffffffff1681526020019081526020015f205f015f9054906101000a900473ffffffffffffffffffffffffffffffffffffffff1673ffffffffffffffffffffffffffffffffffffffff1614610b9e573460035f3373ffffffffffffffffffffffffffffffffffffffff1673ffffffffffffffffffffffffffffffffffffffff1681526020019081526020015f206002015f828254610b3f91906131f6565b92505081905550600160035f3373ffffffffffffffffffffffffffffffffffffffff1673ffffffffffffffffffffffffffffffffffffffff1681526020019081526020015f206003015f828254610b9691906131f6565b925050819055505b3373ffffffffffffffffffffffffffffffffffffffff167ffa5658cbb5d60363acba0d281bddcf21cc9e7ea6053267531b4cdc36d5df7a8a3483604051610be6929190613c6d565b60405180910390a2610bf6612dd7565b50565b60605f5f90505f5f90505b600280549050811015610c9c5760028181548110610c2557610c24613c9b565b5b905f5260205f2090600602016004015f9054906101000a900460ff168015610c7b575060028181548110610c5c57610c5b613c9b565b5b905f5260205f20906006020160040160019054906101000a900460ff16155b15610c8f578180610c8b90613cc8565b9250505b8080600101915050610c04565b505f8167ffffffffffffffff811115610cb857610cb7613438565b5b604051908082528060200260200182016040528015610ce65781602001602082028036833780820191505090505b5090505f5f90505f5f90505b600280549050811015610daa5760028181548110610d1357610d12613c9b565b5b905f5260205f2090600602016004015f9054906101000a900460ff168015610d69575060028181548110610d4a57610d49613c9b565b5b905f5260205f20906006020160040160019054906101000a900460ff16155b15610d9d5780838381518110610d8257610d81613c9b565b5b6020026020010181815250508180610d9990613cc8565b9250505b8080600101915050610cf2565b5081935050505090565b5f60015f8381526020019081526020015f20600101549050919050565b610dda82610db4565b610de381612df1565b610ded8383612e05565b50505050565b5f60055f8373ffffffffffffffffffffffffffffffffffffffff1673ffffffffffffffffffffffffffffffffffffffff1681526020019081526020015f20549050919050565b610e41612eee565b73ffffffffffffffffffffffffffffffffffffffff168173ffffffffffffffffffffffffffffffffffffffff1614610ea5576040517f6697b23200000000000000000000000000000000000000000000000000000000815260040160405180910390fd5b610eaf8282612ef5565b505050565b610ede7fa49807205ce4d355092ef5a8a18f56e8913cf4a201fbe287825b095693c2177533611c64565b610f1d576040517f08c379a0000000000000000000000000000000000000000000000000000000008152600401610f1490613d59565b60405180910390fd5b610f25612fdf565b565b60028181548110610f36575f80fd5b905f5260205f2090600602015f91509050805f015f9054906101000a900473ffffffffffffffffffffffffffffffffffffffff1690806001015490806002018054610f8090613da4565b80601f0160208091040260200160405190810160405280929190818152602001828054610fac90613da4565b8015610ff75780601f10610fce57610100808354040283529160200191610ff7565b820191905f5260205f20905b815481529060010190602001808311610fda57829003601f168201915b505050505090806003015490806004015f9054906101000a900460ff16908060040160019054906101000a900460ff169080600501805461103790613da4565b80601f016020809104026020016040519081016040528092919081815260200182805461106390613da4565b80156110ae5780601f10611085576101008083540402835291602001916110ae565b820191905f5260205f20905b81548152906001019060200180831161109157829003601f168201915b5050505050905087565b6110e27fa49807205ce4d355092ef5a8a18f56e8913cf4a201fbe287825b095693c2177533611c64565b611121576040517f08c379a000000000000000000000000000000000000000000000000000000000815260040161111890613d59565b60405180910390fd5b5f73ffffffffffffffffffffffffffffffffffffffff168273ffffffffffffffffffffffffffffffffffffffff160361118f576040517f08c379a000000000000000000000000000000000000000000000000000000000815260040161118690613e1e565b60405180910390fd5b5f8151116111d2576040517f08c379a00000000000000000000000000000000000000000000000000000000081526004016111c990613e86565b60405180910390fd5b60405180608001604052808373ffffffffffffffffffffffffffffffffffffffff1681526020018281526020015f81526020015f81525060035f8473ffffffffffffffffffffffffffffffffffffffff1673ffffffffffffffffffffffffffffffffffffffff1681526020019081526020015f205f820151815f015f6101000a81548173ffffffffffffffffffffffffffffffffffffffff021916908373ffffffffffffffffffffffffffffffffffffffff160217905550602082015181600101908161129f9190614044565b5060408201518160020155606082015181600301559050508173ffffffffffffffffffffffffffffffffffffffff167ff6bba8a2d47514955cc8e64ea9127b51d5615832d1fbd20ec40275f0876cfcbf826040516112fd9190614113565b60405180910390a25050565b5f5f60605f5f5f60606002805490508810611359576040517f08c379a00000000000000000000000000000000000000000000000000000000081526004016113509061417d565b60405180910390fd5b5f6002898154811061136e5761136d613c9b565b5b905f5260205f2090600602016040518060e00160405290815f82015f9054906101000a900473ffffffffffffffffffffffffffffffffffffffff1673ffffffffffffffffffffffffffffffffffffffff1673ffffffffffffffffffffffffffffffffffffffff168152602001600182015481526020016002820180546113f390613da4565b80601f016020809104026020016040519081016040528092919081815260200182805461141f90613da4565b801561146a5780601f106114415761010080835404028352916020019161146a565b820191905f5260205f20905b81548152906001019060200180831161144d57829003601f168201915b5050505050815260200160038201548152602001600482015f9054906101000a900460ff161515151581526020016004820160019054906101000a900460ff161515151581526020016005820180546114c290613da4565b80601f01602080910402602001604051908101604052809291908181526020018280546114ee90613da4565b80156115395780601f1061151057610100808354040283529160200191611539565b820191905f5260205f20905b81548152906001019060200180831161151c57829003601f168201915b5050505050815250509050805f015181602001518260400151836060015184608001518560a001518660c00151975097509750975097509750975050919395979092949650565b60065481565b5f5f5f9054906101000a900460ff16905090565b5f5f5f5f60065460075460028054905047935093509350935090919293565b7fa49807205ce4d355092ef5a8a18f56e8913cf4a201fbe287825b095693c2177581565b6116077fa49807205ce4d355092ef5a8a18f56e8913cf4a201fbe287825b095693c2177533611c64565b611646576040517f08c379a000000000000000000000000000000000000000000000000000000000815260040161163d90613d59565b60405180910390fd5b600280549050811061168d576040517f08c379a0000000000000000000000000000000000000000000000000000000008152600401611684906141e5565b60405180910390fd5b5f600282815481106116a2576116a1613c9b565b5b905f5260205f2090600602019050806004015f9054906101000a900460ff1615611701576040517f08c379a00000000000000000000000000000000000000000000000000000000081526004016116f89061424d565b60405180910390fd5b8060040160019054906101000a900460ff1615611753576040517f08c379a000000000000000000000000000000000000000000000000000000000815260040161174a906142b5565b60405180910390fd5b805f015f9054906101000a900473ffffffffffffffffffffffffffffffffffffffff1673ffffffffffffffffffffffffffffffffffffffff16827f0864e6a611cf6ee55e5538ff8214adc6eec6731494328b822e4e1bf4da8dfe6e83600101546040516117c09190613407565b60405180910390a35050565b6117f67fa49807205ce4d355092ef5a8a18f56e8913cf4a201fbe287825b095693c2177533611c64565b611835576040517f08c379a000000000000000000000000000000000000000000000000000000000815260040161182c90613d59565b60405180910390fd5b61183d61303f565b565b6118697f3496e2e73c4d42b75d702e60d9e48102720b8691234415963a5a857b86425d0733611c64565b6118a8576040517f08c379a000000000000000000000000000000000000000000000000000000000815260040161189f9061431d565b60405180910390fd5b6118b0612d74565b6118b8612db5565b60028054905081106118ff576040517f08c379a00000000000000000000000000000000000000000000000000000000081526004016118f6906141e5565b60405180910390fd5b5f6002828154811061191457611913613c9b565b5b905f5260205f2090600602019050806004015f9054906101000a900460ff16611972576040517f08c379a000000000000000000000000000000000000000000000000000000000815260040161196990614385565b60405180910390fd5b8060040160019054906101000a900460ff16156119c4576040517f08c379a00000000000000000000000000000000000000000000000000000000081526004016119bb906142b5565b60405180910390fd5b8060010154471015611a0b576040517f08c379a0000000000000000000000000000000000000000000000000000000008152600401611a02906143ed565b60405180910390fd5b8060010154600482600201604051611a23919061448b565b90815260200160405180910390205f828254611a3f91906144a1565b92505081905550806001015460065f828254611a5b91906144a1565b92505081905550806001015460075f828254611a7791906131f6565b92505081905550806001015460055f835f015f9054906101000a900473ffffffffffffffffffffffffffffffffffffffff1673ffffffffffffffffffffffffffffffffffffffff1673ffffffffffffffffffffffffffffffffffffffff1681526020019081526020015f205f828254611af091906131f6565b9250508190555060018160040160016101000a81548160ff0219169083151502179055505f815f015f9054906101000a900473ffffffffffffffffffffffffffffffffffffffff1673ffffffffffffffffffffffffffffffffffffffff168260010154604051611b5f90614501565b5f6040518083038185875af1925050503d805f8114611b99576040519150601f19603f3d011682016040523d82523d5f602084013e611b9e565b606091505b5050905080611be2576040517f08c379a0000000000000000000000000000000000000000000000000000000008152600401611bd99061455f565b60405180910390fd5b815f015f9054906101000a900473ffffffffffffffffffffffffffffffffffffffff1673ffffffffffffffffffffffffffffffffffffffff16837ff8c6b05077fe375044ca4e04e581ca20c0905d68ed935601561474283cc9006f8460010154604051611c4f9190613407565b60405180910390a35050611c61612dd7565b50565b5f60015f8481526020019081526020015f205f015f8373ffffffffffffffffffffffffffffffffffffffff1673ffffffffffffffffffffffffffffffffffffffff1681526020019081526020015f205f9054906101000a900460ff16905092915050565b611cf27fa49807205ce4d355092ef5a8a18f56e8913cf4a201fbe287825b095693c2177533611c64565b611d31576040517f08c379a0000000000000000000000000000000000000000000000000000000008152600401611d2890613d59565b60405180910390fd5b611d39612db5565b5f73ffffffffffffffffffffffffffffffffffffffff168273ffffffffffffffffffffffffffffffffffffffff1603611da7576040517f08c379a0000000000000000000000000000000000000000000000000000000008152600401611d9e906145c7565b60405180910390fd5b80471015611dea576040517f08c379a0000000000000000000000000000000000000000000000000000000008152600401611de1906143ed565b60405180910390fd5b5f8273ffffffffffffffffffffffffffffffffffffffff1682604051611e0f90614501565b5f6040518083038185875af1925050503d805f8114611e49576040519150601f19603f3d011682016040523d82523d5f602084013e611e4e565b606091505b5050905080611e92576040517f08c379a0000000000000000000000000000000000000000000000000000000008152600401611e899061455f565b60405180910390fd5b50611e9b612dd7565b5050565b5f5f1b81565b5f611ed07f3496e2e73c4d42b75d702e60d9e48102720b8691234415963a5a857b86425d0733611c64565b611f0f576040517f08c379a0000000000000000000000000000000000000000000000000000000008152600401611f069061431d565b60405180910390fd5b611f17612d74565b5f73ffffffffffffffffffffffffffffffffffffffff168573ffffffffffffffffffffffffffffffffffffffff1603611f85576040517f08c379a0000000000000000000000000000000000000000000000000000000008152600401611f7c9061462f565b60405180910390fd5b5f8411611fc7576040517f08c379a0000000000000000000000000000000000000000000000000000000008152600401611fbe90614697565b60405180910390fd5b83600484604051611fd89190613c57565b9081526020016040518091039020541015612028576040517f08c379a000000000000000000000000000000000000000000000000000000000815260040161201f906146ff565b60405180910390fd5b5f83511161206b576040517f08c379a000000000000000000000000000000000000000000000000000000000815260040161206290613bff565b60405180910390fd5b5f600280549050905060026040518060e001604052808873ffffffffffffffffffffffffffffffffffffffff1681526020018781526020018681526020014281526020015f151581526020015f1515815260200185815250908060018154018082558091505060019003905f5260205f2090600602015f909190919091505f820151815f015f6101000a81548173ffffffffffffffffffffffffffffffffffffffff021916908373ffffffffffffffffffffffffffffffffffffffff16021790555060208201518160010155604082015181600201908161214c9190614044565b50606082015181600301556080820151816004015f6101000a81548160ff02191690831515021790555060a08201518160040160016101000a81548160ff02191690831515021790555060c08201518160050190816121ab9190614044565b5050508573ffffffffffffffffffffffffffffffffffffffff16817f6287cf850753d92a8b9a4939d559a8ffa2182728dcb7ba5f62142ad24dae45d687876040516121f7929190613c6d565b60405180910390a380915050949350505050565b6004818051602081018201805184825260208301602085012081835280955050505050505f915090505481565b6122627fa49807205ce4d355092ef5a8a18f56e8913cf4a201fbe287825b095693c2177533611c64565b6122a1576040517f08c379a000000000000000000000000000000000000000000000000000000000815260040161229890613d59565b60405180910390fd5b5f6008549050816008819055507f5ea550ac8c7659a888a74cd0c76fe78fbc4eab52adfc759a001803710e9b7ab981836040516122df92919061471d565b60405180910390a15050565b60075481565b61231b7fa49807205ce4d355092ef5a8a18f56e8913cf4a201fbe287825b095693c2177533611c64565b61235a576040517f08c379a000000000000000000000000000000000000000000000000000000000815260040161235190613d59565b60405180910390fd5b612362612d74565b61236a612db5565b60028054905081106123b1576040517f08c379a00000000000000000000000000000000000000000000000000000000081526004016123a8906141e5565b60405180910390fd5b5f600282815481106123c6576123c5613c9b565b5b905f5260205f2090600602019050806004015f9054906101000a900460ff1615612425576040517f08c379a000000000000000000000000000000000000000000000000000000000815260040161241c9061424d565b60405180910390fd5b8060040160019054906101000a900460ff1615612477576040517f08c379a000000000000000000000000000000000000000000000000000000000815260040161246e906142b5565b60405180910390fd5b806001015460048260020160405161248f919061448b565b90815260200160405180910390205410156124df576040517f08c379a00000000000000000000000000000000000000000000000000000000081526004016124d6906146ff565b60405180910390fd5b8060010154471015612526576040517f08c379a000000000000000000000000000000000000000000000000000000000815260040161251d9061478e565b60405180910390fd5b6001816004015f6101000a81548160ff021916908315150217905550805f015f9054906101000a900473ffffffffffffffffffffffffffffffffffffffff1673ffffffffffffffffffffffffffffffffffffffff16827f03e488ff2847c085d31b3125358d670391e28352852804838df00f74449ea6388360010154846002016040516125b492919061482d565b60405180910390a3506125c5612dd7565b50565b60605f5f5f60035f8673ffffffffffffffffffffffffffffffffffffffff1673ffffffffffffffffffffffffffffffffffffffff1681526020019081526020015f206040518060800160405290815f82015f9054906101000a900473ffffffffffffffffffffffffffffffffffffffff1673ffffffffffffffffffffffffffffffffffffffff1673ffffffffffffffffffffffffffffffffffffffff16815260200160018201805461267990613da4565b80601f01602080910402602001604051908101604052809291908181526020018280546126a590613da4565b80156126f05780601f106126c7576101008083540402835291602001916126f0565b820191905f5260205f20905b8154815290600101906020018083116126d357829003601f168201915b50505050508152602001600282015481526020016003820154815250509050806020015181604001518260600151935093509350509193909250565b6003602052805f5260405f205f91509050805f015f9054906101000a900473ffffffffffffffffffffffffffffffffffffffff169080600101805461277090613da4565b80601f016020809104026020016040519081016040528092919081815260200182805461279c90613da4565b80156127e75780601f106127be576101008083540402835291602001916127e7565b820191905f5260205f20905b8154815290600101906020018083116127ca57829003601f168201915b5050505050908060020154908060030154905084565b60085481565b5f600280549050905090565b61281882610db4565b61282181612df1565b61282b8383612ef5565b50505050565b5f6004826040516128429190613c57565b9081526020016040518091039020549050919050565b612860612d74565b612868612db5565b6008543410156128ad576040517f08c379a00000000000000000000000000000000000000000000000000000000081526004016128a490613b97565b60405180910390fd5b3460065f8282546128be91906131f6565b925050819055505f73ffffffffffffffffffffffffffffffffffffffff1660035f3373ffffffffffffffffffffffffffffffffffffffff1673ffffffffffffffffffffffffffffffffffffffff1681526020019081526020015f205f015f9054906101000a900473ffffffffffffffffffffffffffffffffffffffff1673ffffffffffffffffffffffffffffffffffffffff1614612a04573460035f3373ffffffffffffffffffffffffffffffffffffffff1673ffffffffffffffffffffffffffffffffffffffff1681526020019081526020015f206002015f8282546129a591906131f6565b92505081905550600160035f3373ffffffffffffffffffffffffffffffffffffffff1673ffffffffffffffffffffffffffffffffffffffff1681526020019081526020015f206003015f8282546129fc91906131f6565b925050819055505b3373ffffffffffffffffffffffffffffffffffffffff167ffa5658cbb5d60363acba0d281bddcf21cc9e7ea6053267531b4cdc36d5df7a8a34604051612a4a91906148a5565b60405180910390a2612a5a612dd7565b565b7f3496e2e73c4d42b75d702e60d9e48102720b8691234415963a5a857b86425d0781565b612aaa7fa49807205ce4d355092ef5a8a18f56e8913cf4a201fbe287825b095693c2177533611c64565b612ae9576040517f08c379a0000000000000000000000000000000000000000000000000000000008152600401612ae090613d59565b60405180910390fd5b612af1612d74565b6032828290501115612b38576040517f08c379a0000000000000000000000000000000000000000000000000000000008152600401612b2f9061491b565b60405180910390fd5b5f5f90505b82829050811015612d06575f838383818110612b5c57612b5b613c9b565b5b90506020020135905060028054905081108015612ba6575060028181548110612b8857612b87613c9b565b5b905f5260205f2090600602016004015f9054906101000a900460ff16155b8015612be0575060028181548110612bc157612bc0613c9b565b5b905f5260205f20906006020160040160019054906101000a900460ff16155b15612cf857600160028281548110612bfb57612bfa613c9b565b5b905f5260205f2090600602016004015f6101000a81548160ff02191690831515021790555060028181548110612c3457612c33613c9b565b5b905f5260205f2090600602015f015f9054906101000a900473ffffffffffffffffffffffffffffffffffffffff1673ffffffffffffffffffffffffffffffffffffffff16817f03e488ff2847c085d31b3125358d670391e28352852804838df00f74449ea63860028481548110612cae57612cad613c9b565b5b905f5260205f2090600602016001015460028581548110612cd257612cd1613c9b565b5b905f5260205f209060060201600201604051612cef92919061482d565b60405180910390a35b508080600101915050612b3d565b505050565b5f7f01ffc9a7000000000000000000000000000000000000000000000000000000007bffffffffffffffffffffffffffffffffffffffffffffffffffffffff1916827bffffffffffffffffffffffffffffffffffffffffffffffffffffffff1916149050919050565b612d7c611586565b15612db3576040517fd93c066500000000000000000000000000000000000000000000000000000000815260040160405180910390fd5b565b612dbd6130a0565b6002612dcf612dca6130e1565b61310a565b5f0181905550565b6001612de9612de46130e1565b61310a565b5f0181905550565b612e0281612dfd612eee565b613113565b50565b5f612e108383611c64565b612ee4576001805f8581526020019081526020015f205f015f8473ffffffffffffffffffffffffffffffffffffffff1673ffffffffffffffffffffffffffffffffffffffff1681526020019081526020015f205f6101000a81548160ff021916908315150217905550612e81612eee565b73ffffffffffffffffffffffffffffffffffffffff168273ffffffffffffffffffffffffffffffffffffffff16847f2f8788117e7eff1d82e926ec794901d17c78024a50270940304540a733656f0d60405160405180910390a460019050612ee8565b5f90505b92915050565b5f33905090565b5f612f008383611c64565b15612fd5575f60015f8581526020019081526020015f205f015f8473ffffffffffffffffffffffffffffffffffffffff1673ffffffffffffffffffffffffffffffffffffffff1681526020019081526020015f205f6101000a81548160ff021916908315150217905550612f72612eee565b73ffffffffffffffffffffffffffffffffffffffff168273ffffffffffffffffffffffffffffffffffffffff16847ff6391f5c32d9c69d2a47ea670b442974b53935d1edc7fd64eb21e047a839171b60405160405180910390a460019050612fd9565b5f90505b92915050565b612fe7613164565b5f5f5f6101000a81548160ff0219169083151502179055507f5db9ee0a495bf2e6ff9c91a7834c1ba4fdd244a5e8aa4e537bd38aeae4b073aa613028612eee565b6040516130359190614939565b60405180910390a1565b613047612d74565b60015f5f6101000a81548160ff0219169083151502179055507f62e78cea01bee320cd4e420270b5ea74000d11b0c9f74754ebdbfc544b05a258613089612eee565b6040516130969190614939565b60405180910390a1565b6130a86131a4565b156130df576040517f3ee5aeb500000000000000000000000000000000000000000000000000000000815260040160405180910390fd5b565b5f7f9b779b17422d0df92223018b32b4d1fa46e071723d6817e2486d003becc55f005f1b905090565b5f819050919050565b61311d8282611c64565b6131605780826040517fe2517d3f000000000000000000000000000000000000000000000000000000008152600401613157929190614952565b60405180910390fd5b5050565b61316c611586565b6131a2576040517f8dfc202b00000000000000000000000000000000000000000000000000000000815260040160405180910390fd5b565b5f60026131b76131b26130e1565b61310a565b5f015414905090565b5f819050919050565b7f4e487b71000000000000000000000000000000000000000000000000000000005f52601160045260245ffd5b5f613200826131c0565b915061320b836131c0565b9250828201905080821115613223576132226131c9565b5b92915050565b613232816131c0565b82525050565b5f82825260208201905092915050565b7f446972656374205472616e7366657200000000000000000000000000000000005f82015250565b5f61327c600f83613238565b915061328782613248565b602082019050919050565b5f6040820190506132a55f830184613229565b81810360208301526132b681613270565b905092915050565b5f604051905090565b5f5ffd5b5f5ffd5b5f7fffffffff0000000000000000000000000000000000000000000000000000000082169050919050565b613303816132cf565b811461330d575f5ffd5b50565b5f8135905061331e816132fa565b92915050565b5f60208284031215613339576133386132c7565b5b5f61334684828501613310565b91505092915050565b5f8115159050919050565b6133638161334f565b82525050565b5f60208201905061337c5f83018461335a565b92915050565b5f73ffffffffffffffffffffffffffffffffffffffff82169050919050565b5f6133ab82613382565b9050919050565b6133bb816133a1565b81146133c5575f5ffd5b50565b5f813590506133d6816133b2565b92915050565b5f602082840312156133f1576133f06132c7565b5b5f6133fe848285016133c8565b91505092915050565b5f60208201905061341a5f830184613229565b92915050565b5f5ffd5b5f5ffd5b5f601f19601f8301169050919050565b7f4e487b71000000000000000000000000000000000000000000000000000000005f52604160045260245ffd5b61346e82613428565b810181811067ffffffffffffffff8211171561348d5761348c613438565b5b80604052505050565b5f61349f6132be565b90506134ab8282613465565b919050565b5f67ffffffffffffffff8211156134ca576134c9613438565b5b6134d382613428565b9050602081019050919050565b828183375f83830152505050565b5f6135006134fb846134b0565b613496565b90508281526020810184848401111561351c5761351b613424565b5b6135278482856134e0565b509392505050565b5f82601f83011261354357613542613420565b5b81356135538482602086016134ee565b91505092915050565b5f60208284031215613571576135706132c7565b5b5f82013567ffffffffffffffff81111561358e5761358d6132cb565b5b61359a8482850161352f565b91505092915050565b5f81519050919050565b5f82825260208201905092915050565b5f819050602082019050919050565b6135d5816131c0565b82525050565b5f6135e683836135cc565b60208301905092915050565b5f602082019050919050565b5f613608826135a3565b61361281856135ad565b935061361d836135bd565b805f5b8381101561364d57815161363488826135db565b975061363f836135f2565b925050600181019050613620565b5085935050505092915050565b5f6020820190508181035f83015261367281846135fe565b905092915050565b5f819050919050565b61368c8161367a565b8114613696575f5ffd5b50565b5f813590506136a781613683565b92915050565b5f602082840312156136c2576136c16132c7565b5b5f6136cf84828501613699565b91505092915050565b6136e18161367a565b82525050565b5f6020820190506136fa5f8301846136d8565b92915050565b5f5f60408385031215613716576137156132c7565b5b5f61372385828601613699565b9250506020613734858286016133c8565b9150509250929050565b613747816131c0565b8114613751575f5ffd5b50565b5f813590506137628161373e565b92915050565b5f6020828403121561377d5761377c6132c7565b5b5f61378a84828501613754565b91505092915050565b61379c816133a1565b82525050565b5f81519050919050565b8281835e5f83830152505050565b5f6137c4826137a2565b6137ce8185613238565b93506137de8185602086016137ac565b6137e781613428565b840191505092915050565b5f60e0820190506138055f83018a613793565b6138126020830189613229565b818103604083015261382481886137ba565b90506138336060830187613229565b613840608083018661335a565b61384d60a083018561335a565b81810360c083015261385f81846137ba565b905098975050505050505050565b5f5f60408385031215613883576138826132c7565b5b5f613890858286016133c8565b925050602083013567ffffffffffffffff8111156138b1576138b06132cb565b5b6138bd8582860161352f565b9150509250929050565b5f6080820190506138da5f830187613229565b6138e76020830186613229565b6138f46040830185613229565b6139016060830184613229565b95945050505050565b5f61391482613382565b9050919050565b6139248161390a565b811461392e575f5ffd5b50565b5f8135905061393f8161391b565b92915050565b5f5f6040838503121561395b5761395a6132c7565b5b5f61396885828601613931565b925050602061397985828601613754565b9150509250929050565b5f5f5f5f6080858703121561399b5761399a6132c7565b5b5f6139a8878288016133c8565b94505060206139b987828801613754565b935050604085013567ffffffffffffffff8111156139da576139d96132cb565b5b6139e68782880161352f565b925050606085013567ffffffffffffffff811115613a0757613a066132cb565b5b613a138782880161352f565b91505092959194509250565b5f6060820190508181035f830152613a3781866137ba565b9050613a466020830185613229565b613a536040830184613229565b949350505050565b5f608082019050613a6e5f830187613793565b8181036020830152613a8081866137ba565b9050613a8f6040830185613229565b613a9c6060830184613229565b95945050505050565b5f5ffd5b5f5ffd5b5f5f83601f840112613ac257613ac1613420565b5b8235905067ffffffffffffffff811115613adf57613ade613aa5565b5b602083019150836020820283011115613afb57613afa613aa9565b5b9250929050565b5f5f60208385031215613b1857613b176132c7565b5b5f83013567ffffffffffffffff811115613b3557613b346132cb565b5b613b4185828601613aad565b92509250509250929050565b7f446f6e6174696f6e2062656c6f77206d696e696d756d000000000000000000005f82015250565b5f613b81601683613238565b9150613b8c82613b4d565b602082019050919050565b5f6020820190508181035f830152613bae81613b75565b9050919050565b7f5363686f6f6c206e616d652072657175697265640000000000000000000000005f82015250565b5f613be9601483613238565b9150613bf482613bb5565b602082019050919050565b5f6020820190508181035f830152613c1681613bdd565b9050919050565b5f81905092915050565b5f613c31826137a2565b613c3b8185613c1d565b9350613c4b8185602086016137ac565b80840191505092915050565b5f613c628284613c27565b915081905092915050565b5f604082019050613c805f830185613229565b8181036020830152613c9281846137ba565b90509392505050565b7f4e487b71000000000000000000000000000000000000000000000000000000005f52603260045260245ffd5b5f613cd2826131c0565b91507fffffffffffffffffffffffffffffffffffffffffffffffffffffffffffffffff8203613d0457613d036131c9565b5b600182019050919050565b7f43616c6c6572206973206e6f742061646d696e000000000000000000000000005f82015250565b5f613d43601383613238565b9150613d4e82613d0f565b602082019050919050565b5f6020820190508181035f830152613d7081613d37565b9050919050565b7f4e487b71000000000000000000000000000000000000000000000000000000005f52602260045260245ffd5b5f6002820490506001821680613dbb57607f821691505b602082108103613dce57613dcd613d77565b5b50919050565b7f496e76616c696420646f6e6f72206164647265737300000000000000000000005f82015250565b5f613e08601583613238565b9150613e1382613dd4565b602082019050919050565b5f6020820190508181035f830152613e3581613dfc565b9050919050565b7f4f7267616e697a6174696f6e206e616d652072657175697265640000000000005f82015250565b5f613e70601a83613238565b9150613e7b82613e3c565b602082019050919050565b5f6020820190508181035f830152613e9d81613e64565b9050919050565b5f819050815f5260205f209050919050565b5f6020601f8301049050919050565b5f82821b905092915050565b5f60088302613f007fffffffffffffffffffffffffffffffffffffffffffffffffffffffffffffffff82613ec5565b613f0a8683613ec5565b95508019841693508086168417925050509392505050565b5f819050919050565b5f613f45613f40613f3b846131c0565b613f22565b6131c0565b9050919050565b5f819050919050565b613f5e83613f2b565b613f72613f6a82613f4c565b848454613ed1565b825550505050565b5f5f905090565b613f89613f7a565b613f94818484613f55565b505050565b5b81811015613fb757613fac5f82613f81565b600181019050613f9a565b5050565b601f821115613ffc57613fcd81613ea4565b613fd684613eb6565b81016020851015613fe5578190505b613ff9613ff185613eb6565b830182613f99565b50505b505050565b5f82821c905092915050565b5f61401c5f1984600802614001565b1980831691505092915050565b5f614034838361400d565b9150826002028217905092915050565b61404d826137a2565b67ffffffffffffffff81111561406657614065613438565b5b6140708254613da4565b61407b828285613fbb565b5f60209050601f8311600181146140ac575f841561409a578287015190505b6140a48582614029565b86555061410b565b601f1984166140ba86613ea4565b5f5b828110156140e1578489015182556001820191506020850194506020810190506140bc565b868310156140fe57848901516140fa601f89168261400d565b8355505b6001600288020188555050505b505050505050565b5f6020820190508181035f83015261412b81846137ba565b905092915050565b7f496e76616c6964204944000000000000000000000000000000000000000000005f82015250565b5f614167600a83613238565b915061417282614133565b602082019050919050565b5f6020820190508181035f8301526141948161415b565b9050919050565b7f496e76616c69642064697362757273656d656e742049440000000000000000005f82015250565b5f6141cf601783613238565b91506141da8261419b565b602082019050919050565b5f6020820190508181035f8301526141fc816141c3565b9050919050565b7f416c726561647920617070726f766564000000000000000000000000000000005f82015250565b5f614237601083613238565b915061424282614203565b602082019050919050565b5f6020820190508181035f8301526142648161422b565b9050919050565b7f416c7265616479206578656375746564000000000000000000000000000000005f82015250565b5f61429f601083613238565b91506142aa8261426b565b602082019050919050565b5f6020820190508181035f8301526142cc81614293565b9050919050565b7f43616c6c6572206973206e6f74207472656173757265720000000000000000005f82015250565b5f614307601783613238565b9150614312826142d3565b602082019050919050565b5f6020820190508181035f830152614334816142fb565b9050919050565b7f4e6f7420617070726f76656400000000000000000000000000000000000000005f82015250565b5f61436f600c83613238565b915061437a8261433b565b602082019050919050565b5f6020820190508181035f83015261439c81614363565b9050919050565b7f496e73756666696369656e742062616c616e63650000000000000000000000005f82015250565b5f6143d7601483613238565b91506143e2826143a3565b602082019050919050565b5f6020820190508181035f830152614404816143cb565b9050919050565b5f815461441781613da4565b6144218186613c1d565b9450600182165f811461443b576001811461445057614482565b60ff1983168652811515820286019350614482565b61445985613ea4565b5f5b8381101561447a5781548189015260018201915060208101905061445b565b838801955050505b50505092915050565b5f614496828461440b565b915081905092915050565b5f6144ab826131c0565b91506144b6836131c0565b92508282039050818111156144ce576144cd6131c9565b5b92915050565b5f81905092915050565b50565b5f6144ec5f836144d4565b91506144f7826144de565b5f82019050919050565b5f61450b826144e1565b9150819050919050565b7f5472616e73666572206661696c656400000000000000000000000000000000005f82015250565b5f614549600f83613238565b915061455482614515565b602082019050919050565b5f6020820190508181035f8301526145768161453d565b9050919050565b7f496e76616c696420726563697069656e740000000000000000000000000000005f82015250565b5f6145b1601183613238565b91506145bc8261457d565b602082019050919050565b5f6020820190508181035f8301526145de816145a5565b9050919050565b7f496e76616c69642073747564656e7420616464726573730000000000000000005f82015250565b5f614619601783613238565b9150614624826145e5565b602082019050919050565b5f6020820190508181035f8301526146468161460d565b9050919050565b7f416d6f756e74206d7573742062652067726561746572207468616e20300000005f82015250565b5f614681601d83613238565b915061468c8261464d565b602082019050919050565b5f6020820190508181035f8301526146ae81614675565b9050919050565b7f496e73756666696369656e74207363686f6f6c2066756e6473000000000000005f82015250565b5f6146e9601983613238565b91506146f4826146b5565b602082019050919050565b5f6020820190508181035f830152614716816146dd565b9050919050565b5f6040820190506147305f830185613229565b61473d6020830184613229565b9392505050565b7f496e73756666696369656e7420636f6e74726163742062616c616e63650000005f82015250565b5f614778601d83613238565b915061478382614744565b602082019050919050565b5f6020820190508181035f8301526147a58161476c565b9050919050565b5f81546147b881613da4565b6147c28186613238565b9450600182165f81146147dc57600181146147f257614824565b60ff198316865281151560200286019350614824565b6147fb85613ea4565b5f5b8381101561481c578154818901526001820191506020810190506147fd565b808801955050505b50505092915050565b5f6040820190506148405f830185613229565b818103602083015261485281846147ac565b90509392505050565b7f47656e6572616c20506f6f6c00000000000000000000000000000000000000005f82015250565b5f61488f600c83613238565b915061489a8261485b565b602082019050919050565b5f6040820190506148b85f830184613229565b81810360208301526148c981614883565b905092915050565b7f42617463682073697a6520746f6f206c617267650000000000000000000000005f82015250565b5f614905601483613238565b9150614910826148d1565b602082019050919050565b5f6020820190508181035f830152614932816148f9565b9050919050565b5f60208201905061494c5f830184613793565b92915050565b5f6040820190506149655f830185613793565b61497260208301846136d8565b939250505056fea26469706673582212204f729370f64572de1c22b0d267c2e7cbbfa6a12def64d64528bed537a69daedd64736f6c634300081e0033",
    "linkReferences": {}
  },
  "methodIdentifiers": {
    "ADMIN_ROLE()": "75b238fc",
    "DEFAULT_ADMIN_ROLE()": "a217fddf",
    "TREASURER_ROLE()": "f0a3a97c",
    "approveDisbursement(uint256)": "c033e6f4",
    "batchApproveDisbursements(uint256[])": "f57aa95d",
    "disbursements(uint256)": "4e29cba6",
    "donate()": "ed88c68e",
    "donateForSchool(string)": "15ded077",
    "donors(address)": "ca0cdea8",
    "emergencyWithdraw(address,uint256)": "95ccea67",
    "executeDisbursement(uint256)": "861011b8",
    "getDisbursementDetails(uint256)": "4f6aa571",
    "getDonorInfo(address)": "c46a60a5",
    "getPendingDisbursements()": "160c4cf6",
    "getPoolInfo()": "60246c88",
    "getRoleAdmin(bytes32)": "248a9ca3",
    "getSchoolBalance(string)": "e5da607e",
    "getStudentDisbursements(address)": "32e8f6c4",
    "getTotalDisbursements()": "d009518e",
    "grantRole(bytes32,address)": "2f2ff15d",
    "hasRole(bytes32,address)": "91d14854",
    "minDonationAmount()": "cf4ef9c7",
    "pause()": "8456cb59",
    "paused()": "5c975abb",
    "registerDonor(address,string)": "4e312e80",
    "rejectDisbursement(uint256)": "766d2de8",
    "renounceRole(bytes32,address)": "36568abe",
    "requestDisbursement(address,uint256,string,string)": "b20e0522",
    "revokeRole(bytes32,address)": "d547741f",
    "schoolFunds(string)": "b594c551",
    "studentDisbursements(address)": "06df8f35",
    "supportsInterface(bytes4)": "01ffc9a7",
    "totalDisbursed()": "bf95c78d",
    "totalPoolBalance()": "5026d63e",
    "unpause()": "3f4ba83a",
    "updateMinDonation(uint256)": "be890bc5"
  },
  "id": 29
}