{
  "abi": [
    {
      "type": "constructor",
      "inputs": [],
      "stateMutability": "nonpayable"
    },
    {
      "type": "function",
      "name": "ADMIN_ROLE",
      "inputs": [],
      "outputs": [
        {
          "name": "",
          "type": "bytes32",
          "internalType": "bytes32"
        }
      ],
      "stateMutability": "view"
    },
    {
      "type": "function",
      "name": "DEFAULT_ADMIN_ROLE",
      "inputs": [],
      "outputs": [
        {
          "name": "",
          "type": "bytes32",
          "internalType": "bytes32"
        }
      ],
      "stateMutability": "view"
    },
    {
      "type": "function",
      "name": "MERCHANT_ROLE",
      "inputs": [],
      "outputs": [
        {
          "name": "",
          "type": "bytes32",
          "internalType": "bytes32"
        }
      ],
      "stateMutability": "view"
    },
    {
      "type": "function",
      "name": "addCredits",
      "inputs": [
        {
          "name": "student",
          "type": "address",
          "internalType": "address"
        },
        {
          "name": "amount",
          "type": "uint256",
          "internalType": "uint256"
        }
      ],
      "outputs": [],
      "stateMutability": "nonpayable"
    },
    {
      "type": "function",
      "name": "approveSpending",
      "inputs": [
        {
          "name": "requestId",
          "type": "uint256",
          "internalType": "uint256"
        }
      ],
      "outputs": [],
      "stateMutability": "nonpayable"
    },
    {
      "type": "function",
      "name": "createWallet",
      "inputs": [
        {
          "name": "student",
          "type": "address",
          "internalType": "address"
        }
      ],
      "outputs": [],
      "stateMutability": "nonpayable"
    },
    {
      "type": "function",
      "name": "emergencyWithdraw",
      "inputs": [
        {
          "name": "student",
          "type": "address",
          "internalType": "address"
        },
        {
          "name": "amount",
          "type": "uint256",
          "internalType": "uint256"
        }
      ],
      "outputs": [],
      "stateMutability": "nonpayable"
    },
    {
      "type": "function",
      "name": "getBalance",
      "inputs": [
        {
          "name": "student",
          "type": "address",
          "internalType": "address"
        }
      ],
      "outputs": [
        {
          "name": "",
          "type": "uint256",
          "internalType": "uint256"
        }
      ],
      "stateMutability": "view"
    },
    {
      "type": "function",
      "name": "getRoleAdmin",
      "inputs": [
        {
          "name": "role",
          "type": "bytes32",
          "internalType": "bytes32"
        }
      ],
      "outputs": [
        {
          "name": "",
          "type": "bytes32",
          "internalType": "bytes32"
        }
      ],
      "stateMutability": "view"
    },
    {
      "type": "function",
      "name": "getSpendingRequest",
      "inputs": [
        {
          "name": "requestId",
          "type": "uint256",
          "internalType": "uint256"
        }
      ],
      "outputs": [
        {
          "name": "student",
          "type": "address",
          "internalType": "address"
        },
        {
          "name": "amount",
          "type": "uint256",
          "internalType": "uint256"
        },
        {
          "name": "category",
          "type": "uint8",
          "internalType": "enum WalletContract.SpendingCategory"
        },
        {
          "name": "merchantAddress",
          "type": "string",
          "internalType": "string"
        },
        {
          "name": "approved",
          "type": "bool",
          "internalType": "bool"
        },
        {
          "name": "executed",
          "type": "bool",
          "internalType": "bool"
        }
      ],
      "stateMutability": "view"
    },
    {
      "type": "function",
      "name": "getWalletInfo",
      "inputs": [
        {
          "name": "student",
          "type": "address",
          "internalType": "address"
        }
      ],
      "outputs": [
        {
          "name": "balance",
          "type": "uint256",
          "internalType": "uint256"
        },
        {
          "name": "totalSpent",
          "type": "uint256",
          "internalType": "uint256"
        },
        {
          "name": "booksAllowed",
          "type": "bool",
          "internalType": "bool"
        },
        {
          "name": "feesAllowed",
          "type": "bool",
          "internalType": "bool"
        },
        {
          "name": "suppliesAllowed",
          "type": "bool",
          "internalType": "bool"
        }
      ],
      "stateMutability": "view"
    },
    {
      "type": "function",
      "name": "grantRole",
      "inputs": [
        {
          "name": "role",
          "type": "bytes32",
          "internalType": "bytes32"
        },
        {
          "name": "account",
          "type": "address",
          "internalType": "address"
        }
      ],
      "outputs": [],
      "stateMutability": "nonpayable"
    },
    {
      "type": "function",
      "name": "hasRole",
      "inputs": [
        {
          "name": "role",
          "type": "bytes32",
          "internalType": "bytes32"
        },
        {
          "name": "account",
          "type": "address",
          "internalType": "address"
        }
      ],
      "outputs": [
        {
          "name": "",
          "type": "bool",
          "internalType": "bool"
        }
      ],
      "stateMutability": "view"
    },
    {
      "type": "function",
      "name": "hasWallet",
      "inputs": [
        {
          "name": "",
          "type": "address",
          "internalType": "address"
        }
      ],
      "outputs": [
        {
          "name": "",
          "type": "bool",
          "internalType": "bool"
        }
      ],
      "stateMutability": "view"
    },
    {
      "type": "function",
      "name": "isCategoryAllowed",
      "inputs": [
        {
          "name": "student",
          "type": "address",
          "internalType": "address"
        },
        {
          "name": "category",
          "type": "uint8",
          "internalType": "enum WalletContract.SpendingCategory"
        }
      ],
      "outputs": [
        {
          "name": "",
          "type": "bool",
          "internalType": "bool"
        }
      ],
      "stateMutability": "view"
    },
    {
      "type": "function",
      "name": "nextRequestId",
      "inputs": [],
      "outputs": [
        {
          "name": "",
          "type": "uint256",
          "internalType": "uint256"
        }
      ],
      "stateMutability": "view"
    },
    {
      "type": "function",
      "name": "pause",
      "inputs": [],
      "outputs": [],
      "stateMutability": "nonpayable"
    },
    {
      "type": "function",
      "name": "paused",
      "inputs": [],
      "outputs": [
        {
          "name": "",
          "type": "bool",
          "internalType": "bool"
        }
      ],
      "stateMutability": "view"
    },
    {
      "type": "function",
      "name": "renounceRole",
      "inputs": [
        {
          "name": "role",
          "type": "bytes32",
          "internalType": "bytes32"
        },
        {
          "name": "callerConfirmation",
          "type": "address",
          "internalType": "address"
        }
      ],
      "outputs": [],
      "stateMutability": "nonpayable"
    },
    {
      "type": "function",
      "name": "requestSpending",
      "inputs": [
        {
          "name": "amount",
          "type": "uint256",
          "internalType": "uint256"
        },
        {
          "name": "categoryIndex",
          "type": "uint8",
          "internalType": "uint8"
        },
        {
          "name": "merchantAddress",
          "type": "string",
          "internalType": "string"
        }
      ],
      "outputs": [
        {
          "name": "",
          "type": "uint256",
          "internalType": "uint256"
        }
      ],
      "stateMutability": "nonpayable"
    },
    {
      "type": "function",
      "name": "revokeRole",
      "inputs": [
        {
          "name": "role",
          "type": "bytes32",
          "internalType": "bytes32"
        },
        {
          "name": "account",
          "type": "address",
          "internalType": "address"
        }
      ],
      "outputs": [],
      "stateMutability": "nonpayable"
    },
    {
      "type": "function",
      "name": "spendingRequests",
      "inputs": [
        {
          "name": "",
          "type": "uint256",
          "internalType": "uint256"
        }
      ],
      "outputs": [
        {
          "name": "student",
          "type": "address",
          "internalType": "address"
        },
        {
          "name": "amount",
          "type": "uint256",
          "internalType": "uint256"
        },
        {
          "name": "category",
          "type": "uint8",
          "internalType": "enum WalletContract.SpendingCategory"
        },
        {
          "name": "merchantAddress",
          "type": "string",
          "internalType": "string"
        },
        {
          "name": "approved",
          "type": "bool",
          "internalType": "bool"
        },
        {
          "name": "executed",
          "type": "bool",
          "internalType": "bool"
        }
      ],
      "stateMutability": "view"
    },
    {
      "type": "function",
      "name": "supportsInterface",
      "inputs": [
        {
          "name": "interfaceId",
          "type": "bytes4",
          "internalType": "bytes4"
        }
      ],
      "outputs": [
        {
          "name": "",
          "type": "bool",
          "internalType": "bool"
        }
      ],
      "stateMutability": "view"
    },
    {
      "type": "function",
      "name": "unpause",
      "inputs": [],
      "outputs": [],
      "stateMutability": "nonpayable"
    },
    {
      "type": "function",
      "name": "updateAllowedCategory",
      "inputs": [
        {
          "name": "student",
          "type": "address",
          "internalType": "address"
        },
        {
          "name": "category",
          "type": "uint8",
          "internalType": "enum WalletContract.SpendingCategory"
        },
        {
          "name": "allowed",
          "type": "bool",
          "internalType": "bool"
        }
      ],
      "outputs": [],
      "stateMutability": "nonpayable"
    },
    {
      "type": "function",
      "name": "wallets",
      "inputs": [
        {
          "name": "",
          "type": "address",
          "internalType": "address"
        }
      ],
      "outputs": [
        {
          "name": "balance",
          "type": "uint256",
          "internalType": "uint256"
        },
        {
          "name": "totalSpent",
          "type": "uint256",
          "internalType": "uint256"
        }
      ],
      "stateMutability": "view"
    },
    {
      "type": "event",
      "name": "CategoryUpdated",
      "inputs": [
        {
          "name": "student",
          "type": "address",
          "indexed": true,
          "internalType": "address"
        },
        {
          "name": "category",
          "type": "uint8",
          "indexed": false,
          "internalType": "enum WalletContract.SpendingCategory"
        },
        {
          "name": "allowed",
          "type": "bool",
          "indexed": false,
          "internalType": "bool"
        }
      ],
      "anonymous": false
    },
    {
      "type": "event",
      "name": "CreditsAdded",
      "inputs": [
        {
          "name": "student",
          "type": "address",
          "indexed": true,
          "internalType": "address"
        },
        {
          "name": "amount",
          "type": "uint256",
          "indexed": false,
          "internalType": "uint256"
        }
      ],
      "anonymous": false
    },
    {
      "type": "event",
      "name": "CreditsSpent",
      "inputs": [
        {
          "name": "student",
          "type": "address",
          "indexed": true,
          "internalType": "address"
        },
        {
          "name": "amount",
          "type": "uint256",
          "indexed": false,
          "internalType": "uint256"
        },
        {
          "name": "category",
          "type": "uint8",
          "indexed": false,
          "internalType": "enum WalletContract.SpendingCategory"
        }
      ],
      "anonymous": false
    },
    {
      "type": "event",
      "name": "EmergencyWithdraw",
      "inputs": [
        {
          "name": "student",
          "type": "address",
          "indexed": true,
          "internalType": "address"
        },
        {
          "name": "amount",
          "type": "uint256",
          "indexed": false,
          "internalType": "uint256"
        }
      ],
      "anonymous": false
    },
    {
      "type": "event",
      "name": "Paused",
      "inputs": [
        {
          "name": "account",
          "type": "address",
          "indexed": false,
          "internalType": "address"
        }
      ],
      "anonymous": false
    },
    {
      "type": "event",
      "name": "RoleAdminChanged",
      "inputs": [
        {
          "name": "role",
          "type": "bytes32",
          "indexed": true,
          "internalType": "bytes32"
        },
        {
          "name": "previousAdminRole",
          "type": "bytes32",
          "indexed": true,
          "internalType": "bytes32"
        },
        {
          "name": "newAdminRole",
          "type": "bytes32",
          "indexed": true,
          "internalType": "bytes32"
        }
      ],
      "anonymous": false
    },
    {
      "type": "event",
      "name": "RoleGranted",
      "inputs": [
        {
          "name": "role",
          "type": "bytes32",
          "indexed": true,
          "internalType": "bytes32"
        },
        {
          "name": "account",
          "type": "address",
          "indexed": true,
          "internalType": "address"
        },
        {
          "name": "sender",
          "type": "address",
          "indexed": true,
          "internalType": "address"
        }
      ],
      "anonymous": false
    },
    {
      "type": "event",
      "name": "RoleRevoked",
      "inputs": [
        {
          "name": "role",
          "type": "bytes32",
          "indexed": true,
          "internalType": "bytes32"
        },
        {
          "name": "account",
          "type": "address",
          "indexed": true,
          "internalType": "address"
        },
        {
          "name": "sender",
          "type": "address",
          "indexed": true,
          "internalType": "address"
        }
      ],
      "anonymous": false
    },
    {
      "type": "event",
      "name": "SpendingApproved",
      "inputs": [
        {
          "name": "requestId",
          "type": "uint256",
          "indexed": true,
          "internalType": "uint256"
        },
        {
          "name": "student",
          "type": "address",
          "indexed": true,
          "internalType": "address"
        },
        {
          "name": "amount",
          "type": "uint256",
          "indexed": false,
          "internalType": "uint256"
        }
      ],
      "anonymous": false
    },
    {
      "type": "event",
      "name": "SpendingRequested",
      "inputs": [
        {
          "name": "requestId",
          "type": "uint256",
          "indexed": true,
          "internalType": "uint256"
        },
        {
          "name": "student",
          "type": "address",
          "indexed": true,
          "internalType": "address"
        },
        {
          "name": "amount",
          "type": "uint256",
          "indexed": false,
          "internalType": "uint256"
        },
        {
          "name": "category",
          "type": "uint8",
          "indexed": false,
          "internalType": "enum WalletContract.SpendingCategory"
        }
      ],
      "anonymous": false
    },
    {
      "type": "event",
      "name": "Unpaused",
      "inputs": [
        {
          "name": "account",
          "type": "address",
          "indexed": false,
          "internalType": "address"
        }
      ],
      "anonymous": false
    },
    {
      "type": "event",
      "name": "WalletCreated",
      "inputs": [
        {
          "name": "student",
          "type": "address",
          "indexed": true,
          "internalType": "address"
        }
      ],
      "anonymous": false
    },
    {
      "type": "error",
      "name": "AccessControlBadConfirmation",
      "inputs": []
    },
    {
      "type": "error",
      "name": "AccessControlUnauthorizedAccount",
      "inputs": [
        {
          "name": "account",
          "type": "address",
          "internalType": "address"
        },
        {
          "name": "neededRole",
          "type": "bytes32",
          "internalType": "bytes32"
        }
      ]
    },
    {
      "type": "error",
      "name": "EnforcedPause",
      "inputs": []
    },
    {
      "type": "error",
      "name": "ExpectedPause",
      "inputs": []
    },
    {
      "type": "error",
      "name": "ReentrancyGuardReentrantCall",
      "inputs": []
    }
  ],
  "bytecode": {
    "object": "0x608060405234801561000f575f5ffd5b50600161002e61002361007d60201b60201c565b6100a660201b60201c565b5f01819055506100465f5f1b336100af60201b60201c565b506100777fa49807205ce4d355092ef5a8a18f56e8913cf4a201fbe287825b095693c21775336100af60201b60201c565b5061020f565b5f7f9b779b17422d0df92223018b32b4d1fa46e071723d6817e2486d003becc55f005f1b905090565b5f819050919050565b5f6100c083836101a460201b60201c565b61019a576001805f8581526020019081526020015f205f015f8473ffffffffffffffffffffffffffffffffffffffff1673ffffffffffffffffffffffffffffffffffffffff1681526020019081526020015f205f6101000a81548160ff02191690831515021790555061013761020860201b60201c565b73ffffffffffffffffffffffffffffffffffffffff168273ffffffffffffffffffffffffffffffffffffffff16847f2f8788117e7eff1d82e926ec794901d17c78024a50270940304540a733656f0d60405160405180910390a46001905061019e565b5f90505b92915050565b5f60015f8481526020019081526020015f205f015f8373ffffffffffffffffffffffffffffffffffffffff1673ffffffffffffffffffffffffffffffffffffffff1681526020019081526020015f205f9054906101000a900460ff16905092915050565b5f33905090565b6134c48061021c5f395ff3fe608060405234801561000f575f5ffd5b506004361061018c575f3560e01c806389b08f11116100dc578063b054a9e811610095578063e77e0f8e1161006f578063e77e0f8e14610483578063f8a9813e146104b8578063f8b2cb4f146104d4578063fdba0ed9146105045761018c565b8063b054a9e81461042d578063b3d3583914610449578063d547741f146104675761018c565b806389b08f111461034657806391d1485414610377578063951f21f2146103a757806395ccea67146103d757806395f8c33d146103f3578063a217fddf1461040f5761018c565b80635c975abb116101495780637d5c1914116101235780637d5c1914146102bc57806380dc8b06146102f05780638456cb5914610320578063871ff4051461032a5761018c565b80635c975abb146102625780636a84a9851461028057806375b238fc1461029e5761018c565b806301ffc9a714610190578063248a9ca3146101c05780632f2ff15d146101f057806336568abe1461020c5780633e4fa0da146102285780633f4ba83a14610258575b5f5ffd5b6101aa60048036038101906101a59190612566565b610539565b6040516101b791906125ab565b60405180910390f35b6101da60048036038101906101d591906125f7565b6105b2565b6040516101e79190612631565b60405180910390f35b61020a600480360381019061020591906126a4565b6105cf565b005b610226600480360381019061022191906126a4565b6105f1565b005b610242600480360381019061023d9190612887565b61066c565b60405161024f9190612902565b60405180910390f35b610260610aa5565b005b61026a610b18565b60405161027791906125ab565b60405180910390f35b610288610b2c565b6040516102959190612902565b60405180910390f35b6102a6610b32565b6040516102b39190612631565b60405180910390f35b6102d660048036038101906102d1919061291b565b610b56565b6040516102e7959493929190612946565b60405180910390f35b61030a6004803603810190610305919061291b565b610d0e565b60405161031791906125ab565b60405180910390f35b610328610d2b565b005b610344600480360381019061033f9190612997565b610d9e565b005b610360600480360381019061035b919061291b565b610f81565b60405161036e9291906129d5565b60405180910390f35b610391600480360381019061038c91906126a4565b610fa1565b60405161039e91906125ab565b60405180910390f35b6103c160048036038101906103bc9190612a1f565b611005565b6040516103ce91906125ab565b60405180910390f35b6103f160048036038101906103ec9190612997565b611117565b005b61040d60048036038101906104089190612a5d565b611342565b005b6104176117fc565b6040516104249190612631565b60405180910390f35b6104476004803603810190610442919061291b565b611802565b005b610451611b46565b60405161045e9190612631565b60405180910390f35b610481600480360381019061047c91906126a4565b611b6a565b005b61049d60048036038101906104989190612a5d565b611b8c565b6040516104af96959493929190612b6a565b60405180910390f35b6104d260048036038101906104cd9190612bfa565b611c8e565b005b6104ee60048036038101906104e9919061291b565b611e5f565b6040516104fb9190612902565b60405180910390f35b61051e60048036038101906105199190612a5d565b611f30565b60405161053096959493929190612b6a565b60405180910390f35b5f7f7965db0b000000000000000000000000000000000000000000000000000000007bffffffffffffffffffffffffffffffffffffffffffffffffffffffff1916827bffffffffffffffffffffffffffffffffffffffffffffffffffffffff191614806105ab57506105aa8261204b565b5b9050919050565b5f60015f8381526020019081526020015f20600101549050919050565b6105d8826105b2565b6105e1816120b4565b6105eb83836120c8565b50505050565b6105f96121b1565b73ffffffffffffffffffffffffffffffffffffffff168173ffffffffffffffffffffffffffffffffffffffff161461065d576040517f6697b23200000000000000000000000000000000000000000000000000000000815260040160405180910390fd5b61066782826121b8565b505050565b5f6106756122a2565b61067d6122e3565b60035f3373ffffffffffffffffffffffffffffffffffffffff1673ffffffffffffffffffffffffffffffffffffffff1681526020019081526020015f205f9054906101000a900460ff16610706576040517f08c379a00000000000000000000000000000000000000000000000000000000081526004016106fd90612c94565b60405180910390fd5b5f8411610748576040517f08c379a000000000000000000000000000000000000000000000000000000000815260040161073f90612cfc565b60405180910390fd5b8360025f3373ffffffffffffffffffffffffffffffffffffffff1673ffffffffffffffffffffffffffffffffffffffff1681526020019081526020015f205f015410156107ca576040517f08c379a00000000000000000000000000000000000000000000000000000000081526004016107c190612d64565b60405180910390fd5b60038360ff1610610810576040517f08c379a000000000000000000000000000000000000000000000000000000000815260040161080790612dcc565b60405180910390fd5b5f8360ff16600281111561082757610826612a97565b5b905060025f3373ffffffffffffffffffffffffffffffffffffffff1673ffffffffffffffffffffffffffffffffffffffff1681526020019081526020015f206002015f82600281111561087d5761087c612a97565b5b600281111561088f5761088e612a97565b5b81526020019081526020015f205f9054906101000a900460ff166108e8576040517f08c379a00000000000000000000000000000000000000000000000000000000081526004016108df90612e34565b60405180910390fd5b5f60055f8154809291906108fb90612e7f565b9190505590506040518060c001604052803373ffffffffffffffffffffffffffffffffffffffff16815260200187815260200183600281111561094157610940612a97565b5b81526020018581526020015f151581526020015f151581525060045f8381526020019081526020015f205f820151815f015f6101000a81548173ffffffffffffffffffffffffffffffffffffffff021916908373ffffffffffffffffffffffffffffffffffffffff160217905550602082015181600101556040820151816002015f6101000a81548160ff021916908360028111156109e3576109e2612a97565b5b021790555060608201518160030190816109fd91906130c3565b506080820151816004015f6101000a81548160ff02191690831515021790555060a08201518160040160016101000a81548160ff0219169083151502179055509050503373ffffffffffffffffffffffffffffffffffffffff16817fb073f1a0f4bb49aab26edd17ecd0bd53c33978abc658f45d95933f38aa3c53848885604051610a89929190613192565b60405180910390a38092505050610a9e612305565b9392505050565b610acf7fa49807205ce4d355092ef5a8a18f56e8913cf4a201fbe287825b095693c2177533610fa1565b610b0e576040517f08c379a0000000000000000000000000000000000000000000000000000000008152600401610b0590613203565b60405180910390fd5b610b1661231f565b565b5f5f5f9054906101000a900460ff16905090565b60055481565b7fa49807205ce4d355092ef5a8a18f56e8913cf4a201fbe287825b095693c2177581565b5f5f5f5f5f60035f8773ffffffffffffffffffffffffffffffffffffffff1673ffffffffffffffffffffffffffffffffffffffff1681526020019081526020015f205f9054906101000a900460ff16610be4576040517f08c379a0000000000000000000000000000000000000000000000000000000008152600401610bdb90612c94565b60405180910390fd5b5f60025f8873ffffffffffffffffffffffffffffffffffffffff1673ffffffffffffffffffffffffffffffffffffffff1681526020019081526020015f209050805f01548160010154826002015f5f6002811115610c4557610c44612a97565b5b6002811115610c5757610c56612a97565b5b81526020019081526020015f205f9054906101000a900460ff16836002015f60016002811115610c8a57610c89612a97565b5b6002811115610c9c57610c9b612a97565b5b81526020019081526020015f205f9054906101000a900460ff16846002015f600280811115610cce57610ccd612a97565b5b6002811115610ce057610cdf612a97565b5b81526020019081526020015f205f9054906101000a900460ff16955095509550955095505091939590929450565b6003602052805f5260405f205f915054906101000a900460ff1681565b610d557fa49807205ce4d355092ef5a8a18f56e8913cf4a201fbe287825b095693c2177533610fa1565b610d94576040517f08c379a0000000000000000000000000000000000000000000000000000000008152600401610d8b90613203565b60405180910390fd5b610d9c61237f565b565b610dc87fa49807205ce4d355092ef5a8a18f56e8913cf4a201fbe287825b095693c2177533610fa1565b610e07576040517f08c379a0000000000000000000000000000000000000000000000000000000008152600401610dfe90613203565b60405180910390fd5b610e0f6122a2565b60035f8373ffffffffffffffffffffffffffffffffffffffff1673ffffffffffffffffffffffffffffffffffffffff1681526020019081526020015f205f9054906101000a900460ff16610e98576040517f08c379a0000000000000000000000000000000000000000000000000000000008152600401610e8f90612c94565b60405180910390fd5b5f8111610eda576040517f08c379a0000000000000000000000000000000000000000000000000000000008152600401610ed190612cfc565b60405180910390fd5b8060025f8473ffffffffffffffffffffffffffffffffffffffff1673ffffffffffffffffffffffffffffffffffffffff1681526020019081526020015f205f015f828254610f289190613221565b925050819055508173ffffffffffffffffffffffffffffffffffffffff167fed46984c46e11f42ec323727ba7d99dc16be2d248a8aaa8982d492688497f09d82604051610f759190612902565b60405180910390a25050565b6002602052805f5260405f205f91509050805f0154908060010154905082565b5f60015f8481526020019081526020015f205f015f8373ffffffffffffffffffffffffffffffffffffffff1673ffffffffffffffffffffffffffffffffffffffff1681526020019081526020015f205f9054906101000a900460ff16905092915050565b5f60035f8473ffffffffffffffffffffffffffffffffffffffff1673ffffffffffffffffffffffffffffffffffffffff1681526020019081526020015f205f9054906101000a900460ff1661108f576040517f08c379a000000000000000000000000000000000000000000000000000000000815260040161108690612c94565b60405180910390fd5b60025f8473ffffffffffffffffffffffffffffffffffffffff1673ffffffffffffffffffffffffffffffffffffffff1681526020019081526020015f206002015f8360028111156110e3576110e2612a97565b5b60028111156110f5576110f4612a97565b5b81526020019081526020015f205f9054906101000a900460ff16905092915050565b6111417fa49807205ce4d355092ef5a8a18f56e8913cf4a201fbe287825b095693c2177533610fa1565b611180576040517f08c379a000000000000000000000000000000000000000000000000000000000815260040161117790613203565b60405180910390fd5b6111886122e3565b60035f8373ffffffffffffffffffffffffffffffffffffffff1673ffffffffffffffffffffffffffffffffffffffff1681526020019081526020015f205f9054906101000a900460ff16611211576040517f08c379a000000000000000000000000000000000000000000000000000000000815260040161120890612c94565b60405180910390fd5b8060025f8473ffffffffffffffffffffffffffffffffffffffff1673ffffffffffffffffffffffffffffffffffffffff1681526020019081526020015f205f01541015611293576040517f08c379a000000000000000000000000000000000000000000000000000000000815260040161128a90612d64565b60405180910390fd5b8060025f8473ffffffffffffffffffffffffffffffffffffffff1673ffffffffffffffffffffffffffffffffffffffff1681526020019081526020015f205f015f8282546112e19190613254565b925050819055508173ffffffffffffffffffffffffffffffffffffffff167f5fafa99d0643513820be26656b45130b01e1c03062e1266bf36f88cbd3bd96958260405161132e9190612902565b60405180910390a261133e612305565b5050565b61136c7fa49807205ce4d355092ef5a8a18f56e8913cf4a201fbe287825b095693c2177533610fa1565b6113ab576040517f08c379a00000000000000000000000000000000000000000000000000000000081526004016113a290613203565b60405180910390fd5b6113b36122a2565b6113bb6122e3565b5f60045f8381526020019081526020015f2090508060040160019054906101000a900460ff1615611421576040517f08c379a0000000000000000000000000000000000000000000000000000000008152600401611418906132d1565b60405180910390fd5b806004015f9054906101000a900460ff1615611472576040517f08c379a000000000000000000000000000000000000000000000000000000000815260040161146990613339565b60405180910390fd5b60035f825f015f9054906101000a900473ffffffffffffffffffffffffffffffffffffffff1673ffffffffffffffffffffffffffffffffffffffff1673ffffffffffffffffffffffffffffffffffffffff1681526020019081526020015f205f9054906101000a900460ff1661151d576040517f08c379a000000000000000000000000000000000000000000000000000000000815260040161151490612c94565b60405180910390fd5b806001015460025f835f015f9054906101000a900473ffffffffffffffffffffffffffffffffffffffff1673ffffffffffffffffffffffffffffffffffffffff1673ffffffffffffffffffffffffffffffffffffffff1681526020019081526020015f205f015410156115c5576040517f08c379a00000000000000000000000000000000000000000000000000000000081526004016115bc90612d64565b60405180910390fd5b6001816004015f6101000a81548160ff02191690831515021790555060018160040160016101000a81548160ff021916908315150217905550806001015460025f835f015f9054906101000a900473ffffffffffffffffffffffffffffffffffffffff1673ffffffffffffffffffffffffffffffffffffffff1673ffffffffffffffffffffffffffffffffffffffff1681526020019081526020015f205f015f8282546116729190613254565b92505081905550806001015460025f835f015f9054906101000a900473ffffffffffffffffffffffffffffffffffffffff1673ffffffffffffffffffffffffffffffffffffffff1673ffffffffffffffffffffffffffffffffffffffff1681526020019081526020015f206001015f8282546116ee9190613221565b92505081905550805f015f9054906101000a900473ffffffffffffffffffffffffffffffffffffffff1673ffffffffffffffffffffffffffffffffffffffff16827f18985e6c7b9f3ccd4c6258d7fde01bc0abdf3883ec5b1d2bdb963da67c95c46483600101546040516117629190612902565b60405180910390a3805f015f9054906101000a900473ffffffffffffffffffffffffffffffffffffffff1673ffffffffffffffffffffffffffffffffffffffff167f96ed998da08990583939148a49a8d01dad3160901c5ed826b73f41f1ec1c91d38260010154836002015f9054906101000a900460ff166040516117e8929190613192565b60405180910390a2506117f9612305565b50565b5f5f1b81565b61182c7fa49807205ce4d355092ef5a8a18f56e8913cf4a201fbe287825b095693c2177533610fa1565b61186b576040517f08c379a000000000000000000000000000000000000000000000000000000000815260040161186290613203565b60405180910390fd5b6118736122a2565b5f73ffffffffffffffffffffffffffffffffffffffff168173ffffffffffffffffffffffffffffffffffffffff16036118e1576040517f08c379a00000000000000000000000000000000000000000000000000000000081526004016118d8906133a1565b60405180910390fd5b60035f8273ffffffffffffffffffffffffffffffffffffffff1673ffffffffffffffffffffffffffffffffffffffff1681526020019081526020015f205f9054906101000a900460ff161561196b576040517f08c379a000000000000000000000000000000000000000000000000000000000815260040161196290613409565b60405180910390fd5b5f60025f8373ffffffffffffffffffffffffffffffffffffffff1673ffffffffffffffffffffffffffffffffffffffff1681526020019081526020015f2090505f815f01819055505f81600101819055506001816002015f5f60028111156119d6576119d5612a97565b5b60028111156119e8576119e7612a97565b5b81526020019081526020015f205f6101000a81548160ff0219169083151502179055506001816002015f60016002811115611a2657611a25612a97565b5b6002811115611a3857611a37612a97565b5b81526020019081526020015f205f6101000a81548160ff0219169083151502179055506001816002015f600280811115611a7557611a74612a97565b5b6002811115611a8757611a86612a97565b5b81526020019081526020015f205f6101000a81548160ff021916908315150217905550600160035f8473ffffffffffffffffffffffffffffffffffffffff1673ffffffffffffffffffffffffffffffffffffffff1681526020019081526020015f205f6101000a81548160ff0219169083151502179055508173ffffffffffffffffffffffffffffffffffffffff167f234cf33b32239d80b54161e2396c80cdeaf4d34161300e54d8bc01eb7c0ea55360405160405180910390a25050565b7f3c4a2d89ed8b4cf4347fec87df1c38410f8fc538bf9fd64c10f2717bc0feff3681565b611b73826105b2565b611b7c816120b4565b611b8683836121b8565b50505050565b6004602052805f5260405f205f91509050805f015f9054906101000a900473ffffffffffffffffffffffffffffffffffffffff1690806001015490806002015f9054906101000a900460ff1690806003018054611be890612ef3565b80601f0160208091040260200160405190810160405280929190818152602001828054611c1490612ef3565b8015611c5f5780601f10611c3657610100808354040283529160200191611c5f565b820191905f5260205f20905b815481529060010190602001808311611c4257829003601f168201915b505050505090806004015f9054906101000a900460ff16908060040160019054906101000a900460ff16905086565b611cb87fa49807205ce4d355092ef5a8a18f56e8913cf4a201fbe287825b095693c2177533610fa1565b611cf7576040517f08c379a0000000000000000000000000000000000000000000000000000000008152600401611cee90613203565b60405180910390fd5b60035f8473ffffffffffffffffffffffffffffffffffffffff1673ffffffffffffffffffffffffffffffffffffffff1681526020019081526020015f205f9054906101000a900460ff16611d80576040517f08c379a0000000000000000000000000000000000000000000000000000000008152600401611d7790612c94565b60405180910390fd5b8060025f8573ffffffffffffffffffffffffffffffffffffffff1673ffffffffffffffffffffffffffffffffffffffff1681526020019081526020015f206002015f846002811115611dd557611dd4612a97565b5b6002811115611de757611de6612a97565b5b81526020019081526020015f205f6101000a81548160ff0219169083151502179055508273ffffffffffffffffffffffffffffffffffffffff167fef6c375463e6668f7b5acbc92c1e9f450970b1b34083acbe5f6332586575136a8383604051611e52929190613427565b60405180910390a2505050565b5f60035f8373ffffffffffffffffffffffffffffffffffffffff1673ffffffffffffffffffffffffffffffffffffffff1681526020019081526020015f205f9054906101000a900460ff16611ee9576040517f08c379a0000000000000000000000000000000000000000000000000000000008152600401611ee090612c94565b60405180910390fd5b60025f8373ffffffffffffffffffffffffffffffffffffffff1673ffffffffffffffffffffffffffffffffffffffff1681526020019081526020015f205f01549050919050565b5f5f5f60605f5f5f60045f8981526020019081526020015f209050805f015f9054906101000a900473ffffffffffffffffffffffffffffffffffffffff168160010154826002015f9054906101000a900460ff1683600301846004015f9054906101000a900460ff168560040160019054906101000a900460ff16828054611fb790612ef3565b80601f0160208091040260200160405190810160405280929190818152602001828054611fe390612ef3565b801561202e5780601f106120055761010080835404028352916020019161202e565b820191905f5260205f20905b81548152906001019060200180831161201157829003601f168201915b505050505092509650965096509650965096505091939550919395565b5f7f01ffc9a7000000000000000000000000000000000000000000000000000000007bffffffffffffffffffffffffffffffffffffffffffffffffffffffff1916827bffffffffffffffffffffffffffffffffffffffffffffffffffffffff1916149050919050565b6120c5816120c06121b1565b6123e0565b50565b5f6120d38383610fa1565b6121a7576001805f8581526020019081526020015f205f015f8473ffffffffffffffffffffffffffffffffffffffff1673ffffffffffffffffffffffffffffffffffffffff1681526020019081526020015f205f6101000a81548160ff0219169083151502179055506121446121b1565b73ffffffffffffffffffffffffffffffffffffffff168273ffffffffffffffffffffffffffffffffffffffff16847f2f8788117e7eff1d82e926ec794901d17c78024a50270940304540a733656f0d60405160405180910390a4600190506121ab565b5f90505b92915050565b5f33905090565b5f6121c38383610fa1565b15612298575f60015f8581526020019081526020015f205f015f8473ffffffffffffffffffffffffffffffffffffffff1673ffffffffffffffffffffffffffffffffffffffff1681526020019081526020015f205f6101000a81548160ff0219169083151502179055506122356121b1565b73ffffffffffffffffffffffffffffffffffffffff168273ffffffffffffffffffffffffffffffffffffffff16847ff6391f5c32d9c69d2a47ea670b442974b53935d1edc7fd64eb21e047a839171b60405160405180910390a46001905061229c565b5f90505b92915050565b6122aa610b18565b156122e1576040517fd93c066500000000000000000000000000000000000000000000000000000000815260040160405180910390fd5b565b6122eb612431565b60026122fd6122f8612472565b61249b565b5f0181905550565b6001612317612312612472565b61249b565b5f0181905550565b6123276124a4565b5f5f5f6101000a81548160ff0219169083151502179055507f5db9ee0a495bf2e6ff9c91a7834c1ba4fdd244a5e8aa4e537bd38aeae4b073aa6123686121b1565b604051612375919061344e565b60405180910390a1565b6123876122a2565b60015f5f6101000a81548160ff0219169083151502179055507f62e78cea01bee320cd4e420270b5ea74000d11b0c9f74754ebdbfc544b05a2586123c96121b1565b6040516123d6919061344e565b60405180910390a1565b6123ea8282610fa1565b61242d5780826040517fe2517d3f000000000000000000000000000000000000000000000000000000008152600401612424929190613467565b60405180910390fd5b5050565b6124396124e4565b15612470576040517f3ee5aeb500000000000000000000000000000000000000000000000000000000815260040160405180910390fd5b565b5f7f9b779b17422d0df92223018b32b4d1fa46e071723d6817e2486d003becc55f005f1b905090565b5f819050919050565b6124ac610b18565b6124e2576040517f8dfc202b00000000000000000000000000000000000000000000000000000000815260040160405180910390fd5b565b5f60026124f76124f2612472565b61249b565b5f015414905090565b5f604051905090565b5f5ffd5b5f5ffd5b5f7fffffffff0000000000000000000000000000000000000000000000000000000082169050919050565b61254581612511565b811461254f575f5ffd5b50565b5f813590506125608161253c565b92915050565b5f6020828403121561257b5761257a612509565b5b5f61258884828501612552565b91505092915050565b5f8115159050919050565b6125a581612591565b82525050565b5f6020820190506125be5f83018461259c565b92915050565b5f819050919050565b6125d6816125c4565b81146125e0575f5ffd5b50565b5f813590506125f1816125cd565b92915050565b5f6020828403121561260c5761260b612509565b5b5f612619848285016125e3565b91505092915050565b61262b816125c4565b82525050565b5f6020820190506126445f830184612622565b92915050565b5f73ffffffffffffffffffffffffffffffffffffffff82169050919050565b5f6126738261264a565b9050919050565b61268381612669565b811461268d575f5ffd5b50565b5f8135905061269e8161267a565b92915050565b5f5f604083850312156126ba576126b9612509565b5b5f6126c7858286016125e3565b92505060206126d885828601612690565b9150509250929050565b5f819050919050565b6126f4816126e2565b81146126fe575f5ffd5b50565b5f8135905061270f816126eb565b92915050565b5f60ff82169050919050565b61272a81612715565b8114612734575f5ffd5b50565b5f8135905061274581612721565b92915050565b5f5ffd5b5f5ffd5b5f601f19601f8301169050919050565b7f4e487b71000000000000000000000000000000000000000000000000000000005f52604160045260245ffd5b61279982612753565b810181811067ffffffffffffffff821117156127b8576127b7612763565b5b80604052505050565b5f6127ca612500565b90506127d68282612790565b919050565b5f67ffffffffffffffff8211156127f5576127f4612763565b5b6127fe82612753565b9050602081019050919050565b828183375f83830152505050565b5f61282b612826846127db565b6127c1565b9050828152602081018484840111156128475761284661274f565b5b61285284828561280b565b509392505050565b5f82601f83011261286e5761286d61274b565b5b813561287e848260208601612819565b91505092915050565b5f5f5f6060848603121561289e5761289d612509565b5b5f6128ab86828701612701565b93505060206128bc86828701612737565b925050604084013567ffffffffffffffff8111156128dd576128dc61250d565b5b6128e98682870161285a565b9150509250925092565b6128fc816126e2565b82525050565b5f6020820190506129155f8301846128f3565b92915050565b5f602082840312156129305761292f612509565b5b5f61293d84828501612690565b91505092915050565b5f60a0820190506129595f8301886128f3565b61296660208301876128f3565b612973604083018661259c565b612980606083018561259c565b61298d608083018461259c565b9695505050505050565b5f5f604083850312156129ad576129ac612509565b5b5f6129ba85828601612690565b92505060206129cb85828601612701565b9150509250929050565b5f6040820190506129e85f8301856128f3565b6129f560208301846128f3565b9392505050565b60038110612a08575f5ffd5b50565b5f81359050612a19816129fc565b92915050565b5f5f60408385031215612a3557612a34612509565b5b5f612a4285828601612690565b9250506020612a5385828601612a0b565b9150509250929050565b5f60208284031215612a7257612a71612509565b5b5f612a7f84828501612701565b91505092915050565b612a9181612669565b82525050565b7f4e487b71000000000000000000000000000000000000000000000000000000005f52602160045260245ffd5b60038110612ad557612ad4612a97565b5b50565b5f819050612ae582612ac4565b919050565b5f612af482612ad8565b9050919050565b612b0481612aea565b82525050565b5f81519050919050565b5f82825260208201905092915050565b8281835e5f83830152505050565b5f612b3c82612b0a565b612b468185612b14565b9350612b56818560208601612b24565b612b5f81612753565b840191505092915050565b5f60c082019050612b7d5f830189612a88565b612b8a60208301886128f3565b612b976040830187612afb565b8181036060830152612ba98186612b32565b9050612bb8608083018561259c565b612bc560a083018461259c565b979650505050505050565b612bd981612591565b8114612be3575f5ffd5b50565b5f81359050612bf481612bd0565b92915050565b5f5f5f60608486031215612c1157612c10612509565b5b5f612c1e86828701612690565b9350506020612c2f86828701612a0b565b9250506040612c4086828701612be6565b9150509250925092565b7f57616c6c657420646f6573206e6f7420657869737400000000000000000000005f82015250565b5f612c7e601583612b14565b9150612c8982612c4a565b602082019050919050565b5f6020820190508181035f830152612cab81612c72565b9050919050565b7f416d6f756e74206d7573742062652067726561746572207468616e20300000005f82015250565b5f612ce6601d83612b14565b9150612cf182612cb2565b602082019050919050565b5f6020820190508181035f830152612d1381612cda565b9050919050565b7f496e73756666696369656e742062616c616e63650000000000000000000000005f82015250565b5f612d4e601483612b14565b9150612d5982612d1a565b602082019050919050565b5f6020820190508181035f830152612d7b81612d42565b9050919050565b7f496e76616c69642063617465676f7279000000000000000000000000000000005f82015250565b5f612db6601083612b14565b9150612dc182612d82565b602082019050919050565b5f6020820190508181035f830152612de381612daa565b9050919050565b7f43617465676f7279206e6f7420616c6c6f7765640000000000000000000000005f82015250565b5f612e1e601483612b14565b9150612e2982612dea565b602082019050919050565b5f6020820190508181035f830152612e4b81612e12565b9050919050565b7f4e487b71000000000000000000000000000000000000000000000000000000005f52601160045260245ffd5b5f612e89826126e2565b91507fffffffffffffffffffffffffffffffffffffffffffffffffffffffffffffffff8203612ebb57612eba612e52565b5b600182019050919050565b7f4e487b71000000000000000000000000000000000000000000000000000000005f52602260045260245ffd5b5f6002820490506001821680612f0a57607f821691505b602082108103612f1d57612f1c612ec6565b5b50919050565b5f819050815f5260205f209050919050565b5f6020601f8301049050919050565b5f82821b905092915050565b5f60088302612f7f7fffffffffffffffffffffffffffffffffffffffffffffffffffffffffffffffff82612f44565b612f898683612f44565b95508019841693508086168417925050509392505050565b5f819050919050565b5f612fc4612fbf612fba846126e2565b612fa1565b6126e2565b9050919050565b5f819050919050565b612fdd83612faa565b612ff1612fe982612fcb565b848454612f50565b825550505050565b5f5f905090565b613008612ff9565b613013818484612fd4565b505050565b5b818110156130365761302b5f82613000565b600181019050613019565b5050565b601f82111561307b5761304c81612f23565b61305584612f35565b81016020851015613064578190505b61307861307085612f35565b830182613018565b50505b505050565b5f82821c905092915050565b5f61309b5f1984600802613080565b1980831691505092915050565b5f6130b3838361308c565b9150826002028217905092915050565b6130cc82612b0a565b67ffffffffffffffff8111156130e5576130e4612763565b5b6130ef8254612ef3565b6130fa82828561303a565b5f60209050601f83116001811461312b575f8415613119578287015190505b61312385826130a8565b86555061318a565b601f19841661313986612f23565b5f5b828110156131605784890151825560018201915060208501945060208101905061313b565b8683101561317d5784890151613179601f89168261308c565b8355505b6001600288020188555050505b505050505050565b5f6040820190506131a55f8301856128f3565b6131b26020830184612afb565b9392505050565b7f43616c6c6572206973206e6f742061646d696e000000000000000000000000005f82015250565b5f6131ed601383612b14565b91506131f8826131b9565b602082019050919050565b5f6020820190508181035f83015261321a816131e1565b9050919050565b5f61322b826126e2565b9150613236836126e2565b925082820190508082111561324e5761324d612e52565b5b92915050565b5f61325e826126e2565b9150613269836126e2565b925082820390508181111561328157613280612e52565b5b92915050565b7f416c7265616479206578656375746564000000000000000000000000000000005f82015250565b5f6132bb601083612b14565b91506132c682613287565b602082019050919050565b5f6020820190508181035f8301526132e8816132af565b9050919050565b7f416c726561647920617070726f766564000000000000000000000000000000005f82015250565b5f613323601083612b14565b915061332e826132ef565b602082019050919050565b5f6020820190508181035f83015261335081613317565b9050919050565b7f496e76616c6964206164647265737300000000000000000000000000000000005f82015250565b5f61338b600f83612b14565b915061339682613357565b602082019050919050565b5f6020820190508181035f8301526133b88161337f565b9050919050565b7f57616c6c657420616c72656164792065786973747300000000000000000000005f82015250565b5f6133f3601583612b14565b91506133fe826133bf565b602082019050919050565b5f6020820190508181035f830152613420816133e7565b9050919050565b5f60408201905061343a5f830185612afb565b613447602083018461259c565b9392505050565b5f6020820190506134615f830184612a88565b92915050565b5f60408201905061347a5f830185612a88565b6134876020830184612622565b939250505056fea2646970667358221220f96c3fa7a0e1b70ed7d34757ef243984c68a9166ccafa5c5bd6e8227b91b197e64736f6c634300081e0033",
    "linkReferences": {}
  },
  "methodIdentifiers": {
    "ADMIN_ROLE()": "75b238fc",
    "DEFAULT_ADMIN_ROLE()": "a217fddf",
    "MERCHANT_ROLE()": "b3d35839",
    "addCredits(address,uint256)": "871ff405",
    "approveSpending(uint256)": "95f8c33d",
    "createWallet(address)": "b054a9e8",
    "emergencyWithdraw(address,uint256)": "95ccea67",
    "getBalance(address)": "f8b2cb4f",
    "getRoleAdmin(bytes32)": "248a9ca3",
    "getSpendingRequest(uint256)": "fdba0ed9",
    "getWalletInfo(address)": "7d5c1914",
    "grantRole(bytes32,address)": "2f2ff15d",
    "hasRole(bytes32,address)": "91d14854",
    "hasWallet(address)": "80dc8b06",
    "isCategoryAllowed(address,uint8)": "951f21f2",
    "nextRequestId()": "6a84a985",
    "pause()": "8456cb59",
    "paused()": "5c975abb",
    "renounceRole(bytes32,address)": "36568abe",
    "requestSpending(uint256,uint8,string)": "3e4fa0da",
    "revokeRole(bytes32,address)": "d547741f",
    "spendingRequests(uint256)": "e77e0f8e",
    "supportsInterface(bytes4)": "01ffc9a7",
    "unpause()": "3f4ba83a",
    "updateAllowedCategory(address,uint8,bool)": "f8a9813e",
    "wallets(address)": "89b08f11"
  },
  "id": 31
}